{"abi":[{"type":"constructor","inputs":[{"name":"initialOwner","type":"address","internalType":"address"}],"stateMutability":"nonpayable"},{"type":"function","name":"addApprover","inputs":[{"name":"account","type":"address","internalType":"address"}],"outputs":[],"stateMutability":"nonpayable"},{"type":"function","name":"approve","inputs":[{"name":"to","type":"address","internalType":"address"},{"name":"tokenId","type":"uint256","internalType":"uint256"}],"outputs":[],"stateMutability":"nonpayable"},{"type":"function","name":"approveSubmission","inputs":[{"name":"challengeId","type":"uint256","internalType":"uint256"},{"name":"submissionId","type":"string","internalType":"string"},{"name":"playerAddress","type":"address","internalType":"address"},{"name":"nickname","type":"string","internalType":"string"},{"name":"points","type":"uint256[]","internalType":"uint256[]"}],"outputs":[],"stateMutability":"nonpayable"},{"type":"function","name":"balanceOf","inputs":[{"name":"owner","type":"address","internalType":"address"}],"outputs":[{"name":"","type":"uint256","internalType":"uint256"}],"stateMutability":"view"},{"type":"function","name":"completedChallenges","inputs":[{"name":"player","type":"address","internalType":"address"},{"name":"challengeId","type":"uint256","internalType":"uint256"}],"outputs":[{"name":"completed","type":"bool","internalType":"bool"}],"stateMutability":"view"},{"type":"function","name":"deadline","inputs":[],"outputs":[{"name":"","type":"uint256","internalType":"uint256"}],"stateMutability":"view"},{"type":"function","name":"getApproved","inputs":[{"name":"tokenId","type":"uint256","internalType":"uint256"}],"outputs":[{"name":"","type":"address","internalType":"address"}],"stateMutability":"view"},{"type":"function","name":"getChallengeId","inputs":[{"name":"tokenId","type":"uint256","internalType":"uint256"}],"outputs":[{"name":"","type":"uint256","internalType":"uint256"}],"stateMutability":"view"},{"type":"function","name":"getNickname","inputs":[{"name":"playerAddress","type":"address","internalType":"address"}],"outputs":[{"name":"","type":"string","internalType":"string"}],"stateMutability":"view"},{"type":"function","name":"getPoints","inputs":[{"name":"tokenId","type":"uint256","internalType":"uint256"}],"outputs":[{"name":"","type":"uint256[]","internalType":"uint256[]"}],"stateMutability":"view"},{"type":"function","name":"getTokenForChallenge","inputs":[{"name":"player","type":"address","internalType":"address"},{"name":"challengeId","type":"uint256","internalType":"uint256"}],"outputs":[{"name":"","type":"uint256","internalType":"uint256"}],"stateMutability":"view"},{"type":"function","name":"isApprovedForAll","inputs":[{"name":"owner","type":"address","internalType":"address"},{"name":"operator","type":"address","internalType":"address"}],"outputs":[{"name":"","type":"bool","internalType":"bool"}],"stateMutability":"view"},{"type":"function","name":"isApprover","inputs":[{"name":"","type":"address","internalType":"address"}],"outputs":[{"name":"","type":"bool","internalType":"bool"}],"stateMutability":"view"},{"type":"function","name":"name","inputs":[],"outputs":[{"name":"","type":"string","internalType":"string"}],"stateMutability":"view"},{"type":"function","name":"owner","inputs":[],"outputs":[{"name":"","type":"address","internalType":"address"}],"stateMutability":"view"},{"type":"function","name":"ownerOf","inputs":[{"name":"tokenId","type":"uint256","internalType":"uint256"}],"outputs":[{"name":"","type":"address","internalType":"address"}],"stateMutability":"view"},{"type":"function","name":"profiles","inputs":[{"name":"","type":"address","internalType":"address"}],"outputs":[{"name":"nickname","type":"string","internalType":"string"}],"stateMutability":"view"},{"type":"function","name":"removeApprover","inputs":[{"name":"account","type":"address","internalType":"address"}],"outputs":[],"stateMutability":"nonpayable"},{"type":"function","name":"renounceOwnership","inputs":[],"outputs":[],"stateMutability":"nonpayable"},{"type":"function","name":"safeTransferFrom","inputs":[{"name":"from","type":"address","internalType":"address"},{"name":"to","type":"address","internalType":"address"},{"name":"tokenId","type":"uint256","internalType":"uint256"}],"outputs":[],"stateMutability":"nonpayable"},{"type":"function","name":"safeTransferFrom","inputs":[{"name":"from","type":"address","internalType":"address"},{"name":"to","type":"address","internalType":"address"},{"name":"tokenId","type":"uint256","internalType":"uint256"},{"name":"data","type":"bytes","internalType":"bytes"}],"outputs":[],"stateMutability":"nonpayable"},{"type":"function","name":"setApprovalForAll","inputs":[{"name":"operator","type":"address","internalType":"address"},{"name":"approved","type":"bool","internalType":"bool"}],"outputs":[],"stateMutability":"nonpayable"},{"type":"function","name":"supportsInterface","inputs":[{"name":"interfaceId","type":"bytes4","internalType":"bytes4"}],"outputs":[{"name":"","type":"bool","internalType":"bool"}],"stateMutability":"view"},{"type":"function","name":"symbol","inputs":[],"outputs":[{"name":"","type":"string","internalType":"string"}],"stateMutability":"view"},{"type":"function","name":"tokenByIndex","inputs":[{"name":"index","type":"uint256","internalType":"uint256"}],"outputs":[{"name":"","type":"uint256","internalType":"uint256"}],"stateMutability":"view"},{"type":"function","name":"tokenChallenge","inputs":[{"name":"tokenId","type":"uint256","internalType":"uint256"}],"outputs":[{"name":"challengeId","type":"uint256","internalType":"uint256"}],"stateMutability":"view"},{"type":"function","name":"tokenOfOwnerByIndex","inputs":[{"name":"owner","type":"address","internalType":"address"},{"name":"index","type":"uint256","internalType":"uint256"}],"outputs":[{"name":"","type":"uint256","internalType":"uint256"}],"stateMutability":"view"},{"type":"function","name":"tokenSubmission","inputs":[{"name":"tokenId","type":"uint256","internalType":"uint256"}],"outputs":[{"name":"submissionId","type":"string","internalType":"string"}],"stateMutability":"view"},{"type":"function","name":"tokenURI","inputs":[{"name":"tokenId","type":"uint256","internalType":"uint256"}],"outputs":[{"name":"","type":"string","internalType":"string"}],"stateMutability":"view"},{"type":"function","name":"totalSupply","inputs":[],"outputs":[{"name":"","type":"uint256","internalType":"uint256"}],"stateMutability":"view"},{"type":"function","name":"transferFrom","inputs":[{"name":"from","type":"address","internalType":"address"},{"name":"to","type":"address","internalType":"address"},{"name":"tokenId","type":"uint256","internalType":"uint256"}],"outputs":[],"stateMutability":"nonpayable"},{"type":"function","name":"transferOwnership","inputs":[{"name":"newOwner","type":"address","internalType":"address"}],"outputs":[],"stateMutability":"nonpayable"},{"type":"event","name":"Approval","inputs":[{"name":"owner","type":"address","indexed":true,"internalType":"address"},{"name":"approved","type":"address","indexed":true,"internalType":"address"},{"name":"tokenId","type":"uint256","indexed":true,"internalType":"uint256"}],"anonymous":false},{"type":"event","name":"ApprovalForAll","inputs":[{"name":"owner","type":"address","indexed":true,"internalType":"address"},{"name":"operator","type":"address","indexed":true,"internalType":"address"},{"name":"approved","type":"bool","indexed":false,"internalType":"bool"}],"anonymous":false},{"type":"event","name":"OwnershipTransferred","inputs":[{"name":"previousOwner","type":"address","indexed":true,"internalType":"address"},{"name":"newOwner","type":"address","indexed":true,"internalType":"address"}],"anonymous":false},{"type":"event","name":"SubmissionApproved","inputs":[{"name":"playerAddress","type":"address","indexed":true,"internalType":"address"},{"name":"challengeId","type":"uint256","indexed":true,"internalType":"uint256"},{"name":"nickname","type":"string","indexed":false,"internalType":"string"},{"name":"totalPoints","type":"uint256","indexed":false,"internalType":"uint256"},{"name":"tokenId","type":"uint256","indexed":true,"internalType":"uint256"}],"anonymous":false},{"type":"event","name":"Transfer","inputs":[{"name":"from","type":"address","indexed":true,"internalType":"address"},{"name":"to","type":"address","indexed":true,"internalType":"address"},{"name":"tokenId","type":"uint256","indexed":true,"internalType":"uint256"}],"anonymous":false},{"type":"error","name":"AlreadyApprover","inputs":[{"name":"account","type":"address","internalType":"address"}]},{"type":"error","name":"ChallengeAlreadyCompleted","inputs":[{"name":"player","type":"address","internalType":"address"},{"name":"challengeId","type":"uint256","internalType":"uint256"}]},{"type":"error","name":"DeadlineExceeded","inputs":[{"name":"deadline","type":"uint256","internalType":"uint256"},{"name":"currentTime","type":"uint256","internalType":"uint256"}]},{"type":"error","name":"ERC721EnumerableForbiddenBatchMint","inputs":[]},{"type":"error","name":"ERC721IncorrectOwner","inputs":[{"name":"sender","type":"address","internalType":"address"},{"name":"tokenId","type":"uint256","internalType":"uint256"},{"name":"owner","type":"address","internalType":"address"}]},{"type":"error","name":"ERC721InsufficientApproval","inputs":[{"name":"operator","type":"address","internalType":"address"},{"name":"tokenId","type":"uint256","internalType":"uint256"}]},{"type":"error","name":"ERC721InvalidApprover","inputs":[{"name":"approver","type":"address","internalType":"address"}]},{"type":"error","name":"ERC721InvalidOperator","inputs":[{"name":"operator","type":"address","internalType":"address"}]},{"type":"error","name":"ERC721InvalidOwner","inputs":[{"name":"owner","type":"address","internalType":"address"}]},{"type":"error","name":"ERC721InvalidReceiver","inputs":[{"name":"receiver","type":"address","internalType":"address"}]},{"type":"error","name":"ERC721InvalidSender","inputs":[{"name":"sender","type":"address","internalType":"address"}]},{"type":"error","name":"ERC721NonexistentToken","inputs":[{"name":"tokenId","type":"uint256","internalType":"uint256"}]},{"type":"error","name":"ERC721OutOfBoundsIndex","inputs":[{"name":"owner","type":"address","internalType":"address"},{"name":"index","type":"uint256","internalType":"uint256"}]},{"type":"error","name":"NotApprover","inputs":[{"name":"account","type":"address","internalType":"address"}]},{"type":"error","name":"OwnableInvalidOwner","inputs":[{"name":"owner","type":"address","internalType":"address"}]},{"type":"error","name":"OwnableUnauthorizedAccount","inputs":[{"name":"account","type":"address","internalType":"address"}]},{"type":"error","name":"Unauthorized","inputs":[]}],"bytecode":{"object":"0x60a060405234801561000f575f5ffd5b5060405161424238038061424283398181016040528101906100319190610272565b806040518060400160405280600c81526020017f4f6e636861696e204461797300000000000000000000000000000000000000008152506040518060400160405280600381526020017f4f43440000000000000000000000000000000000000000000000000000000000815250815f90816100ac91906104da565b5080600190816100bc91906104da565b5050505f73ffffffffffffffffffffffffffffffffffffffff168173ffffffffffffffffffffffffffffffffffffffff160361012f575f6040517f1e4fbdf700000000000000000000000000000000000000000000000000000000815260040161012691906105b8565b60405180910390fd5b61013e8161015160201b60201c565b506367ae878060808181525050506105d1565b5f600a5f9054906101000a900473ffffffffffffffffffffffffffffffffffffffff16905081600a5f6101000a81548173ffffffffffffffffffffffffffffffffffffffff021916908373ffffffffffffffffffffffffffffffffffffffff1602179055508173ffffffffffffffffffffffffffffffffffffffff168173ffffffffffffffffffffffffffffffffffffffff167f8be0079c531659141344cd1fd0a4f28419497f9722a3daafe3b4186f6b6457e060405160405180910390a35050565b5f5ffd5b5f73ffffffffffffffffffffffffffffffffffffffff82169050919050565b5f61024182610218565b9050919050565b61025181610237565b811461025b575f5ffd5b50565b5f8151905061026c81610248565b92915050565b5f6020828403121561028757610286610214565b5b5f6102948482850161025e565b91505092915050565b5f81519050919050565b7f4e487b71000000000000000000000000000000000000000000000000000000005f52604160045260245ffd5b7f4e487b71000000000000000000000000000000000000000000000000000000005f52602260045260245ffd5b5f600282049050600182168061031857607f821691505b60208210810361032b5761032a6102d4565b5b50919050565b5f819050815f5260205f209050919050565b5f6020601f8301049050919050565b5f82821b905092915050565b5f6008830261038d7fffffffffffffffffffffffffffffffffffffffffffffffffffffffffffffffff82610352565b6103978683610352565b95508019841693508086168417925050509392505050565b5f819050919050565b5f819050919050565b5f6103db6103d66103d1846103af565b6103b8565b6103af565b9050919050565b5f819050919050565b6103f4836103c1565b610408610400826103e2565b84845461035e565b825550505050565b5f5f905090565b61041f610410565b61042a8184846103eb565b505050565b5b8181101561044d576104425f82610417565b600181019050610430565b5050565b601f8211156104925761046381610331565b61046c84610343565b8101602085101561047b578190505b61048f61048785610343565b83018261042f565b50505b505050565b5f82821c905092915050565b5f6104b25f1984600802610497565b1980831691505092915050565b5f6104ca83836104a3565b9150826002028217905092915050565b6104e38261029d565b67ffffffffffffffff8111156104fc576104fb6102a7565b5b6105068254610301565b610511828285610451565b5f60209050601f831160018114610542575f8415610530578287015190505b61053a85826104bf565b8655506105a1565b601f19841661055086610331565b5f5b8281101561057757848901518255600182019150602085019450602081019050610552565b868310156105945784890151610590601f8916826104a3565b8355505b6001600288020188555050505b505050505050565b6105b281610237565b82525050565b5f6020820190506105cb5f8301846105a9565b92915050565b608051613c2f6106135f395f818161093701528181610a7f01528181610aa701528181610ef101528181610f190152818161151101526115390152613c2f5ff3fe608060405234801561000f575f5ffd5b50600436106101ee575f3560e01c806370a082311161010d578063adaccd74116100a0578063bef1ea161161006f578063bef1ea1614610612578063c87b56dd14610642578063e985e9c514610672578063f2fde38b146106a2576101ee565b8063adaccd741461057a578063b646c194146105aa578063b88d4fde146105c6578063bbe15627146105e2576101ee565b806395d89b41116100dc57806395d89b41146104e05780639e4de77f146104fe578063a22cb4651461052e578063a967eee41461054a576101ee565b806370a0823114610458578063715018a61461048857806380405e3f146104925780638da5cb5b146104c2576101ee565b80632f745c59116101855780634f6ccce7116101545780634f6ccce7146103ac5780636352211e146103dc5780636cf4c88f1461040c5780636d218e4814610428576101ee565b80632f745c591461031457806336b2b5b31461034457806340ec06e21461036057806342842e0e14610390576101ee565b80630acb3a0e116101c15780630acb3a0e1461028c57806318160ddd146102bc57806323b872dd146102da57806329dcb0cf146102f6576101ee565b806301ffc9a7146101f257806306fdde0314610222578063081812fc14610240578063095ea7b314610270575b5f5ffd5b61020c60048036038101906102079190612c50565b6106be565b6040516102199190612c95565b60405180910390f35b61022a6106cf565b6040516102379190612d1e565b60405180910390f35b61025a60048036038101906102559190612d71565b61075e565b6040516102679190612ddb565b60405180910390f35b61028a60048036038101906102859190612e1e565b610779565b005b6102a660048036038101906102a19190612d71565b61078f565b6040516102b39190612d1e565b60405180910390f35b6102c461082a565b6040516102d19190612e6b565b60405180910390f35b6102f460048036038101906102ef9190612e84565b610836565b005b6102fe610935565b60405161030b9190612e6b565b60405180910390f35b61032e60048036038101906103299190612e1e565b610959565b60405161033b9190612e6b565b60405180910390f35b61035e60048036038101906103599190612f8a565b6109fd565b005b61037a60048036038101906103759190612d71565b610e21565b6040516103879190612e6b565b60405180910390f35b6103aa60048036038101906103a59190612e84565b610e45565b005b6103c660048036038101906103c19190612d71565b610e64565b6040516103d39190612e6b565b60405180910390f35b6103f660048036038101906103f19190612d71565b610ed6565b6040516104039190612ddb565b60405180910390f35b61042660048036038101906104219190613061565b610ee7565b005b610442600480360381019061043d9190613061565b611058565b60405161044f9190612c95565b60405180910390f35b610472600480360381019061046d9190613061565b611075565b60405161047f9190612e6b565b60405180910390f35b61049061112b565b005b6104ac60048036038101906104a79190612e1e565b61113e565b6040516104b99190612c95565b60405180910390f35b6104ca611168565b6040516104d79190612ddb565b60405180910390f35b6104e8611190565b6040516104f59190612d1e565b60405180910390f35b61051860048036038101906105139190612e1e565b611220565b6040516105259190612e6b565b60405180910390f35b610548600480360381019061054391906130b6565b6112ba565b005b610564600480360381019061055f9190612d71565b6112d0565b60405161057191906131ab565b60405180910390f35b610594600480360381019061058f9190613061565b611438565b6040516105a19190612d1e565b60405180910390f35b6105c460048036038101906105bf9190613061565b611507565b005b6105e060048036038101906105db91906132f3565b61167a565b005b6105fc60048036038101906105f79190613061565b61169f565b6040516106099190612d1e565b60405180910390f35b61062c60048036038101906106279190612d71565b61173f565b6040516106399190612e6b565b60405180910390f35b61065c60048036038101906106579190612d71565b611754565b6040516106699190612d1e565b60405180910390f35b61068c60048036038101906106879190613373565b6117b8565b6040516106999190612c95565b60405180910390f35b6106bc60048036038101906106b79190613061565b611846565b005b5f6106c8826118ca565b9050919050565b60605f80546106dd906133de565b80601f0160208091040260200160405190810160405280929190818152602001828054610709906133de565b80156107545780601f1061072b57610100808354040283529160200191610754565b820191905f5260205f20905b81548152906001019060200180831161073757829003601f168201915b5050505050905090565b5f61076882611943565b50610772826119c9565b9050919050565b61078b8282610786611a02565b611a09565b5050565b600e602052805f5260405f205f9150905080546107ab906133de565b80601f01602080910402602001604051908101604052809291908181526020018280546107d7906133de565b80156108225780601f106107f957610100808354040283529160200191610822565b820191905f5260205f20905b81548152906001019060200180831161080557829003601f168201915b505050505081565b5f600880549050905090565b5f73ffffffffffffffffffffffffffffffffffffffff168273ffffffffffffffffffffffffffffffffffffffff16036108a6575f6040517f64a0ae9200000000000000000000000000000000000000000000000000000000815260040161089d9190612ddb565b60405180910390fd5b5f6108b983836108b4611a02565b611a1b565b90508373ffffffffffffffffffffffffffffffffffffffff168173ffffffffffffffffffffffffffffffffffffffff161461092f578382826040517f64283d7b0000000000000000000000000000000000000000000000000000000081526004016109269392919061340e565b60405180910390fd5b50505050565b7f000000000000000000000000000000000000000000000000000000000000000081565b5f61096383611075565b82106109a85782826040517fa57d13dc00000000000000000000000000000000000000000000000000000000815260040161099f929190613443565b60405180910390fd5b60065f8473ffffffffffffffffffffffffffffffffffffffff1673ffffffffffffffffffffffffffffffffffffffff1681526020019081526020015f205f8381526020019081526020015f2054905092915050565b600c5f3373ffffffffffffffffffffffffffffffffffffffff1673ffffffffffffffffffffffffffffffffffffffff1681526020019081526020015f205f9054906101000a900460ff16610a7d576040517f82b4290000000000000000000000000000000000000000000000000000000000815260040160405180910390fd5b7f0000000000000000000000000000000000000000000000000000000000000000421115610b04577f0000000000000000000000000000000000000000000000000000000000000000426040517f24bf66c5000000000000000000000000000000000000000000000000000000008152600401610afb92919061346a565b60405180910390fd5b600f5f8673ffffffffffffffffffffffffffffffffffffffff1673ffffffffffffffffffffffffffffffffffffffff1681526020019081526020015f205f8981526020019081526020015f205f9054906101000a900460ff1615610ba15784886040517f92ad9061000000000000000000000000000000000000000000000000000000008152600401610b98929190613443565b60405180910390fd5b5f60105f8773ffffffffffffffffffffffffffffffffffffffff1673ffffffffffffffffffffffffffffffffffffffff1681526020019081526020015f2090505f85859050118015610c0157505f815f018054610bfd906133de565b9050145b15610c1a578484825f019182610c1892919061363b565b505b60405180604001604052808a81526020018484808060200260200160405190810160405280939291908181526020018383602002808284375f81840152601f19601f82011690508083019250505050505050815250816001018989604051610c83929190613736565b90815260200160405180910390205f820151815f01556020820151816001019080519060200190610cb5929190612b84565b509050505f600b5f815480929190610ccc9061377b565b91905055905089600d5f8381526020019081526020015f20819055508888600e5f8481526020019081526020015f209182610d0892919061363b565b506001600f5f8973ffffffffffffffffffffffffffffffffffffffff1673ffffffffffffffffffffffffffffffffffffffff1681526020019081526020015f205f8c81526020019081526020015f205f6101000a81548160ff021916908315150217905550610d778782611a30565b5f5f90505f5f90505b85859050811015610dbf57858582818110610d9e57610d9d6137c2565b5b9050602002013582610db091906137ef565b91508080600101915050610d80565b50818b8973ffffffffffffffffffffffffffffffffffffffff167fd87bc45365334c6e2d9702637857248135566f481405a2c72ee4f0b3e0323879865f0185604051610e0c9291906138a3565b60405180910390a45050505050505050505050565b5f610e2b82611943565b50600d5f8381526020019081526020015f20549050919050565b610e5f83838360405180602001604052805f81525061167a565b505050565b5f610e6d61082a565b8210610eb2575f826040517fa57d13dc000000000000000000000000000000000000000000000000000000008152600401610ea9929190613443565b60405180910390fd5b60088281548110610ec657610ec56137c2565b5b905f5260205f2001549050919050565b5f610ee082611943565b9050919050565b610eef611a4d565b7f0000000000000000000000000000000000000000000000000000000000000000421115610f76577f0000000000000000000000000000000000000000000000000000000000000000426040517f24bf66c5000000000000000000000000000000000000000000000000000000008152600401610f6d92919061346a565b60405180910390fd5b600c5f8273ffffffffffffffffffffffffffffffffffffffff1673ffffffffffffffffffffffffffffffffffffffff1681526020019081526020015f205f9054906101000a900460ff1661100157806040517fec37f146000000000000000000000000000000000000000000000000000000008152600401610ff89190612ddb565b60405180910390fd5b5f600c5f8373ffffffffffffffffffffffffffffffffffffffff1673ffffffffffffffffffffffffffffffffffffffff1681526020019081526020015f205f6101000a81548160ff02191690831515021790555050565b600c602052805f5260405f205f915054906101000a900460ff1681565b5f5f73ffffffffffffffffffffffffffffffffffffffff168273ffffffffffffffffffffffffffffffffffffffff16036110e6575f6040517f89c62b640000000000000000000000000000000000000000000000000000000081526004016110dd9190612ddb565b60405180910390fd5b60035f8373ffffffffffffffffffffffffffffffffffffffff1673ffffffffffffffffffffffffffffffffffffffff1681526020019081526020015f20549050919050565b611133611a4d565b61113c5f611ad4565b565b600f602052815f5260405f20602052805f5260405f205f915091509054906101000a900460ff1681565b5f600a5f9054906101000a900473ffffffffffffffffffffffffffffffffffffffff16905090565b60606001805461119f906133de565b80601f01602080910402602001604051908101604052809291908181526020018280546111cb906133de565b80156112165780601f106111ed57610100808354040283529160200191611216565b820191905f5260205f20905b8154815290600101906020018083116111f957829003601f168201915b5050505050905090565b5f5f61122b84611075565b90505f5f90505b81811015611278575f6112458683610959565b905084600d5f8381526020019081526020015f20540361126a578093505050506112b4565b508080600101915050611232565b506040517f08c379a00000000000000000000000000000000000000000000000000000000081526004016112ab9061391b565b60405180910390fd5b92915050565b6112cc6112c5611a02565b8383611b97565b5050565b60606112db82611943565b505f6112e683610ed6565b90505f600e5f8581526020019081526020015f208054611305906133de565b80601f0160208091040260200160405190810160405280929190818152602001828054611331906133de565b801561137c5780601f106113535761010080835404028352916020019161137c565b820191905f5260205f20905b81548152906001019060200180831161135f57829003601f168201915b5050505050905060105f8373ffffffffffffffffffffffffffffffffffffffff1673ffffffffffffffffffffffffffffffffffffffff1681526020019081526020015f20600101816040516113d19190613969565b908152602001604051809103902060010180548060200260200160405190810160405280929190818152602001828054801561142a57602002820191905f5260205f20905b815481526020019060010190808311611416575b505050505092505050919050565b606060105f8373ffffffffffffffffffffffffffffffffffffffff1673ffffffffffffffffffffffffffffffffffffffff1681526020019081526020015f205f018054611484906133de565b80601f01602080910402602001604051908101604052809291908181526020018280546114b0906133de565b80156114fb5780601f106114d2576101008083540402835291602001916114fb565b820191905f5260205f20905b8154815290600101906020018083116114de57829003601f168201915b50505050509050919050565b61150f611a4d565b7f0000000000000000000000000000000000000000000000000000000000000000421115611596577f0000000000000000000000000000000000000000000000000000000000000000426040517f24bf66c500000000000000000000000000000000000000000000000000000000815260040161158d92919061346a565b60405180910390fd5b600c5f8273ffffffffffffffffffffffffffffffffffffffff1673ffffffffffffffffffffffffffffffffffffffff1681526020019081526020015f205f9054906101000a900460ff161561162257806040517f432c6a850000000000000000000000000000000000000000000000000000000081526004016116199190612ddb565b60405180910390fd5b6001600c5f8373ffffffffffffffffffffffffffffffffffffffff1673ffffffffffffffffffffffffffffffffffffffff1681526020019081526020015f205f6101000a81548160ff02191690831515021790555050565b611685848484610836565b611699611690611a02565b85858585611d00565b50505050565b6010602052805f5260405f205f91509050805f0180546116be906133de565b80601f01602080910402602001604051908101604052809291908181526020018280546116ea906133de565b80156117355780601f1061170c57610100808354040283529160200191611735565b820191905f5260205f20905b81548152906001019060200180831161171857829003601f168201915b5050505050905081565b600d602052805f5260405f205f915090505481565b606061175f82611943565b505f600d5f8481526020019081526020015f2054905061177d611eac565b61178682611ecc565b61178f85611ecc565b6040516020016117a1939291906139c9565b604051602081830303815290604052915050919050565b5f60055f8473ffffffffffffffffffffffffffffffffffffffff1673ffffffffffffffffffffffffffffffffffffffff1681526020019081526020015f205f8373ffffffffffffffffffffffffffffffffffffffff1673ffffffffffffffffffffffffffffffffffffffff1681526020019081526020015f205f9054906101000a900460ff16905092915050565b61184e611a4d565b5f73ffffffffffffffffffffffffffffffffffffffff168173ffffffffffffffffffffffffffffffffffffffff16036118be575f6040517f1e4fbdf70000000000000000000000000000000000000000000000000000000081526004016118b59190612ddb565b60405180910390fd5b6118c781611ad4565b50565b5f7f780e9d63000000000000000000000000000000000000000000000000000000007bffffffffffffffffffffffffffffffffffffffffffffffffffffffff1916827bffffffffffffffffffffffffffffffffffffffffffffffffffffffff1916148061193c575061193b82612025565b5b9050919050565b5f5f61194e83612106565b90505f73ffffffffffffffffffffffffffffffffffffffff168173ffffffffffffffffffffffffffffffffffffffff16036119c057826040517f7e2732890000000000000000000000000000000000000000000000000000000081526004016119b79190612e6b565b60405180910390fd5b80915050919050565b5f60045f8381526020019081526020015f205f9054906101000a900473ffffffffffffffffffffffffffffffffffffffff169050919050565b5f33905090565b611a16838383600161213f565b505050565b5f611a278484846122fe565b90509392505050565b611a49828260405180602001604052805f815250612418565b5050565b611a55611a02565b73ffffffffffffffffffffffffffffffffffffffff16611a73611168565b73ffffffffffffffffffffffffffffffffffffffff1614611ad257611a96611a02565b6040517f118cdaa7000000000000000000000000000000000000000000000000000000008152600401611ac99190612ddb565b60405180910390fd5b565b5f600a5f9054906101000a900473ffffffffffffffffffffffffffffffffffffffff16905081600a5f6101000a81548173ffffffffffffffffffffffffffffffffffffffff021916908373ffffffffffffffffffffffffffffffffffffffff1602179055508173ffffffffffffffffffffffffffffffffffffffff168173ffffffffffffffffffffffffffffffffffffffff167f8be0079c531659141344cd1fd0a4f28419497f9722a3daafe3b4186f6b6457e060405160405180910390a35050565b5f73ffffffffffffffffffffffffffffffffffffffff168273ffffffffffffffffffffffffffffffffffffffff1603611c0757816040517f5b08ba18000000000000000000000000000000000000000000000000000000008152600401611bfe9190612ddb565b60405180910390fd5b8060055f8573ffffffffffffffffffffffffffffffffffffffff1673ffffffffffffffffffffffffffffffffffffffff1681526020019081526020015f205f8473ffffffffffffffffffffffffffffffffffffffff1673ffffffffffffffffffffffffffffffffffffffff1681526020019081526020015f205f6101000a81548160ff0219169083151502179055508173ffffffffffffffffffffffffffffffffffffffff168373ffffffffffffffffffffffffffffffffffffffff167f17307eab39ab6107e8899845ad3d59bd9653f200f220920489ca2b5937696c3183604051611cf39190612c95565b60405180910390a3505050565b5f8373ffffffffffffffffffffffffffffffffffffffff163b1115611ea5578273ffffffffffffffffffffffffffffffffffffffff1663150b7a02868685856040518563ffffffff1660e01b8152600401611d5e9493929190613a61565b6020604051808303815f875af1925050508015611d9957506040513d601f19601f82011682018060405250810190611d969190613abf565b60015b611e1a573d805f8114611dc7576040519150601f19603f3d011682016040523d82523d5f602084013e611dcc565b606091505b505f815103611e1257836040517f64a0ae92000000000000000000000000000000000000000000000000000000008152600401611e099190612ddb565b60405180910390fd5b805181602001fd5b63150b7a0260e01b7bffffffffffffffffffffffffffffffffffffffffffffffffffffffff1916817bffffffffffffffffffffffffffffffffffffffffffffffffffffffff191614611ea357836040517f64a0ae92000000000000000000000000000000000000000000000000000000008152600401611e9a9190612ddb565b60405180910390fd5b505b5050505050565b6060604051806060016040528060228152602001613bd860229139905090565b60605f8203611f12576040518060400160405280600181526020017f30000000000000000000000000000000000000000000000000000000000000008152509050612020565b5f8290505f5b5f8214611f41578080611f2a9061377b565b915050600a82611f3a9190613b17565b9150611f18565b5f8167ffffffffffffffff811115611f5c57611f5b6131cf565b5b6040519080825280601f01601f191660200182016040528015611f8e5781602001600182028036833780820191505090505b5090505b5f851461201957600182611fa69190613b47565b9150600a85611fb59190613b7a565b6030611fc191906137ef565b60f81b818381518110611fd757611fd66137c2565b5b60200101907effffffffffffffffffffffffffffffffffffffffffffffffffffffffffffff191690815f1a905350600a856120129190613b17565b9450611f92565b8093505050505b919050565b5f7f80ac58cd000000000000000000000000000000000000000000000000000000007bffffffffffffffffffffffffffffffffffffffffffffffffffffffff1916827bffffffffffffffffffffffffffffffffffffffffffffffffffffffff191614806120ef57507f5b5e139f000000000000000000000000000000000000000000000000000000007bffffffffffffffffffffffffffffffffffffffffffffffffffffffff1916827bffffffffffffffffffffffffffffffffffffffffffffffffffffffff1916145b806120ff57506120fe8261243b565b5b9050919050565b5f60025f8381526020019081526020015f205f9054906101000a900473ffffffffffffffffffffffffffffffffffffffff169050919050565b808061217757505f73ffffffffffffffffffffffffffffffffffffffff168273ffffffffffffffffffffffffffffffffffffffff1614155b156122a9575f61218684611943565b90505f73ffffffffffffffffffffffffffffffffffffffff168373ffffffffffffffffffffffffffffffffffffffff16141580156121f057508273ffffffffffffffffffffffffffffffffffffffff168173ffffffffffffffffffffffffffffffffffffffff1614155b8015612203575061220181846117b8565b155b1561224557826040517fa9fbf51f00000000000000000000000000000000000000000000000000000000815260040161223c9190612ddb565b60405180910390fd5b81156122a757838573ffffffffffffffffffffffffffffffffffffffff168273ffffffffffffffffffffffffffffffffffffffff167f8c5be1e5ebec7d5bd14f71427d1e84f3dd0314c0f7b2291e5b200ac8c7c3b92560405160405180910390a45b505b8360045f8581526020019081526020015f205f6101000a81548173ffffffffffffffffffffffffffffffffffffffff021916908373ffffffffffffffffffffffffffffffffffffffff16021790555050505050565b5f5f61230b8585856124a4565b90505f73ffffffffffffffffffffffffffffffffffffffff168173ffffffffffffffffffffffffffffffffffffffff160361234e57612349846126af565b61238d565b8473ffffffffffffffffffffffffffffffffffffffff168173ffffffffffffffffffffffffffffffffffffffff161461238c5761238b81856126f3565b5b5b5f73ffffffffffffffffffffffffffffffffffffffff168573ffffffffffffffffffffffffffffffffffffffff16036123ce576123c9846127ca565b61240d565b8473ffffffffffffffffffffffffffffffffffffffff168173ffffffffffffffffffffffffffffffffffffffff161461240c5761240b858561288a565b5b5b809150509392505050565b612422838361290e565b61243661242d611a02565b5f858585611d00565b505050565b5f7f01ffc9a7000000000000000000000000000000000000000000000000000000007bffffffffffffffffffffffffffffffffffffffffffffffffffffffff1916827bffffffffffffffffffffffffffffffffffffffffffffffffffffffff1916149050919050565b5f5f6124af84612106565b90505f73ffffffffffffffffffffffffffffffffffffffff168373ffffffffffffffffffffffffffffffffffffffff16146124f0576124ef818486612a01565b5b5f73ffffffffffffffffffffffffffffffffffffffff168173ffffffffffffffffffffffffffffffffffffffff161461257b5761252f5f855f5f61213f565b600160035f8373ffffffffffffffffffffffffffffffffffffffff1673ffffffffffffffffffffffffffffffffffffffff1681526020019081526020015f205f82825403925050819055505b5f73ffffffffffffffffffffffffffffffffffffffff168573ffffffffffffffffffffffffffffffffffffffff16146125fa57600160035f8773ffffffffffffffffffffffffffffffffffffffff1673ffffffffffffffffffffffffffffffffffffffff1681526020019081526020015f205f82825401925050819055505b8460025f8681526020019081526020015f205f6101000a81548173ffffffffffffffffffffffffffffffffffffffff021916908373ffffffffffffffffffffffffffffffffffffffff160217905550838573ffffffffffffffffffffffffffffffffffffffff168273ffffffffffffffffffffffffffffffffffffffff167fddf252ad1be2c89b69c2b068fc378daa952ba7f163c4a11628f55a4df523b3ef60405160405180910390a4809150509392505050565b60088054905060095f8381526020019081526020015f2081905550600881908060018154018082558091505060019003905f5260205f20015f909190919091505550565b5f6126fd83611075565b90505f60075f8481526020019081526020015f205490505f60065f8673ffffffffffffffffffffffffffffffffffffffff1673ffffffffffffffffffffffffffffffffffffffff1681526020019081526020015f20905082821461279c575f815f8581526020019081526020015f2054905080825f8581526020019081526020015f20819055508260075f8381526020019081526020015f2081905550505b60075f8581526020019081526020015f205f9055805f8481526020019081526020015f205f90555050505050565b5f60016008805490506127dd9190613b47565b90505f60095f8481526020019081526020015f205490505f60088381548110612809576128086137c2565b5b905f5260205f20015490508060088381548110612829576128286137c2565b5b905f5260205f2001819055508160095f8381526020019081526020015f208190555060095f8581526020019081526020015f205f9055600880548061287157612870613baa565b5b600190038181905f5260205f20015f9055905550505050565b5f600161289684611075565b6128a09190613b47565b90508160065f8573ffffffffffffffffffffffffffffffffffffffff1673ffffffffffffffffffffffffffffffffffffffff1681526020019081526020015f205f8381526020019081526020015f20819055508060075f8481526020019081526020015f2081905550505050565b5f73ffffffffffffffffffffffffffffffffffffffff168273ffffffffffffffffffffffffffffffffffffffff160361297e575f6040517f64a0ae920000000000000000000000000000000000000000000000000000000081526004016129759190612ddb565b60405180910390fd5b5f61298a83835f611a1b565b90505f73ffffffffffffffffffffffffffffffffffffffff168173ffffffffffffffffffffffffffffffffffffffff16146129fc575f6040517f73c6ac6e0000000000000000000000000000000000000000000000000000000081526004016129f39190612ddb565b60405180910390fd5b505050565b612a0c838383612ac4565b612abf575f73ffffffffffffffffffffffffffffffffffffffff168373ffffffffffffffffffffffffffffffffffffffff1603612a8057806040517f7e273289000000000000000000000000000000000000000000000000000000008152600401612a779190612e6b565b60405180910390fd5b81816040517f177e802f000000000000000000000000000000000000000000000000000000008152600401612ab6929190613443565b60405180910390fd5b505050565b5f5f73ffffffffffffffffffffffffffffffffffffffff168373ffffffffffffffffffffffffffffffffffffffff1614158015612b7b57508273ffffffffffffffffffffffffffffffffffffffff168473ffffffffffffffffffffffffffffffffffffffff161480612b3c5750612b3b84846117b8565b5b80612b7a57508273ffffffffffffffffffffffffffffffffffffffff16612b62836119c9565b73ffffffffffffffffffffffffffffffffffffffff16145b5b90509392505050565b828054828255905f5260205f20908101928215612bbe579160200282015b82811115612bbd578251825591602001919060010190612ba2565b5b509050612bcb9190612bcf565b5090565b5b80821115612be6575f815f905550600101612bd0565b5090565b5f604051905090565b5f5ffd5b5f5ffd5b5f7fffffffff0000000000000000000000000000000000000000000000000000000082169050919050565b612c2f81612bfb565b8114612c39575f5ffd5b50565b5f81359050612c4a81612c26565b92915050565b5f60208284031215612c6557612c64612bf3565b5b5f612c7284828501612c3c565b91505092915050565b5f8115159050919050565b612c8f81612c7b565b82525050565b5f602082019050612ca85f830184612c86565b92915050565b5f81519050919050565b5f82825260208201905092915050565b8281835e5f83830152505050565b5f601f19601f8301169050919050565b5f612cf082612cae565b612cfa8185612cb8565b9350612d0a818560208601612cc8565b612d1381612cd6565b840191505092915050565b5f6020820190508181035f830152612d368184612ce6565b905092915050565b5f819050919050565b612d5081612d3e565b8114612d5a575f5ffd5b50565b5f81359050612d6b81612d47565b92915050565b5f60208284031215612d8657612d85612bf3565b5b5f612d9384828501612d5d565b91505092915050565b5f73ffffffffffffffffffffffffffffffffffffffff82169050919050565b5f612dc582612d9c565b9050919050565b612dd581612dbb565b82525050565b5f602082019050612dee5f830184612dcc565b92915050565b612dfd81612dbb565b8114612e07575f5ffd5b50565b5f81359050612e1881612df4565b92915050565b5f5f60408385031215612e3457612e33612bf3565b5b5f612e4185828601612e0a565b9250506020612e5285828601612d5d565b9150509250929050565b612e6581612d3e565b82525050565b5f602082019050612e7e5f830184612e5c565b92915050565b5f5f5f60608486031215612e9b57612e9a612bf3565b5b5f612ea886828701612e0a565b9350506020612eb986828701612e0a565b9250506040612eca86828701612d5d565b9150509250925092565b5f5ffd5b5f5ffd5b5f5ffd5b5f5f83601f840112612ef557612ef4612ed4565b5b8235905067ffffffffffffffff811115612f1257612f11612ed8565b5b602083019150836001820283011115612f2e57612f2d612edc565b5b9250929050565b5f5f83601f840112612f4a57612f49612ed4565b5b8235905067ffffffffffffffff811115612f6757612f66612ed8565b5b602083019150836020820283011115612f8357612f82612edc565b5b9250929050565b5f5f5f5f5f5f5f5f60a0898b031215612fa657612fa5612bf3565b5b5f612fb38b828c01612d5d565b985050602089013567ffffffffffffffff811115612fd457612fd3612bf7565b5b612fe08b828c01612ee0565b97509750506040612ff38b828c01612e0a565b955050606089013567ffffffffffffffff81111561301457613013612bf7565b5b6130208b828c01612ee0565b9450945050608089013567ffffffffffffffff81111561304357613042612bf7565b5b61304f8b828c01612f35565b92509250509295985092959890939650565b5f6020828403121561307657613075612bf3565b5b5f61308384828501612e0a565b91505092915050565b61309581612c7b565b811461309f575f5ffd5b50565b5f813590506130b08161308c565b92915050565b5f5f604083850312156130cc576130cb612bf3565b5b5f6130d985828601612e0a565b92505060206130ea858286016130a2565b9150509250929050565b5f81519050919050565b5f82825260208201905092915050565b5f819050602082019050919050565b61312681612d3e565b82525050565b5f613137838361311d565b60208301905092915050565b5f602082019050919050565b5f613159826130f4565b61316381856130fe565b935061316e8361310e565b805f5b8381101561319e578151613185888261312c565b975061319083613143565b925050600181019050613171565b5085935050505092915050565b5f6020820190508181035f8301526131c3818461314f565b905092915050565b5f5ffd5b7f4e487b71000000000000000000000000000000000000000000000000000000005f52604160045260245ffd5b61320582612cd6565b810181811067ffffffffffffffff82111715613224576132236131cf565b5b80604052505050565b5f613236612bea565b905061324282826131fc565b919050565b5f67ffffffffffffffff821115613261576132606131cf565b5b61326a82612cd6565b9050602081019050919050565b828183375f83830152505050565b5f61329761329284613247565b61322d565b9050828152602081018484840111156132b3576132b26131cb565b5b6132be848285613277565b509392505050565b5f82601f8301126132da576132d9612ed4565b5b81356132ea848260208601613285565b91505092915050565b5f5f5f5f6080858703121561330b5761330a612bf3565b5b5f61331887828801612e0a565b945050602061332987828801612e0a565b935050604061333a87828801612d5d565b925050606085013567ffffffffffffffff81111561335b5761335a612bf7565b5b613367878288016132c6565b91505092959194509250565b5f5f6040838503121561338957613388612bf3565b5b5f61339685828601612e0a565b92505060206133a785828601612e0a565b9150509250929050565b7f4e487b71000000000000000000000000000000000000000000000000000000005f52602260045260245ffd5b5f60028204905060018216806133f557607f821691505b602082108103613408576134076133b1565b5b50919050565b5f6060820190506134215f830186612dcc565b61342e6020830185612e5c565b61343b6040830184612dcc565b949350505050565b5f6040820190506134565f830185612dcc565b6134636020830184612e5c565b9392505050565b5f60408201905061347d5f830185612e5c565b61348a6020830184612e5c565b9392505050565b5f82905092915050565b5f819050815f5260205f209050919050565b5f6020601f8301049050919050565b5f82821b905092915050565b5f600883026134f77fffffffffffffffffffffffffffffffffffffffffffffffffffffffffffffffff826134bc565b61350186836134bc565b95508019841693508086168417925050509392505050565b5f819050919050565b5f61353c61353761353284612d3e565b613519565b612d3e565b9050919050565b5f819050919050565b61355583613522565b61356961356182613543565b8484546134c8565b825550505050565b5f5f905090565b613580613571565b61358b81848461354c565b505050565b5b818110156135ae576135a35f82613578565b600181019050613591565b5050565b601f8211156135f3576135c48161349b565b6135cd846134ad565b810160208510156135dc578190505b6135f06135e8856134ad565b830182613590565b50505b505050565b5f82821c905092915050565b5f6136135f19846008026135f8565b1980831691505092915050565b5f61362b8383613604565b9150826002028217905092915050565b6136458383613491565b67ffffffffffffffff81111561365e5761365d6131cf565b5b61366882546133de565b6136738282856135b2565b5f601f8311600181146136a0575f841561368e578287013590505b6136988582613620565b8655506136ff565b601f1984166136ae8661349b565b5f5b828110156136d5578489013582556001820191506020850194506020810190506136b0565b868310156136f257848901356136ee601f891682613604565b8355505b6001600288020188555050505b50505050505050565b5f81905092915050565b5f61371d8385613708565b935061372a838584613277565b82840190509392505050565b5f613742828486613712565b91508190509392505050565b7f4e487b71000000000000000000000000000000000000000000000000000000005f52601160045260245ffd5b5f61378582612d3e565b91507fffffffffffffffffffffffffffffffffffffffffffffffffffffffffffffffff82036137b7576137b661374e565b5b600182019050919050565b7f4e487b71000000000000000000000000000000000000000000000000000000005f52603260045260245ffd5b5f6137f982612d3e565b915061380483612d3e565b925082820190508082111561381c5761381b61374e565b5b92915050565b5f815461382e816133de565b6138388186612cb8565b9450600182165f811461385257600181146138685761389a565b60ff19831686528115156020028601935061389a565b6138718561349b565b5f5b8381101561389257815481890152600182019150602081019050613873565b808801955050505b50505092915050565b5f6040820190508181035f8301526138bb8185613822565b90506138ca6020830184612e5c565b9392505050565b7f4368616c6c656e6765206e6f7420636f6d706c657465640000000000000000005f82015250565b5f613905601783612cb8565b9150613910826138d1565b602082019050919050565b5f6020820190508181035f830152613932816138f9565b9050919050565b5f61394382612cae565b61394d8185613708565b935061395d818560208601612cc8565b80840191505092915050565b5f6139748284613939565b915081905092915050565b7f2f000000000000000000000000000000000000000000000000000000000000005f82015250565b5f6139b3600183613708565b91506139be8261397f565b600182019050919050565b5f6139d48286613939565b91506139df826139a7565b91506139eb8285613939565b91506139f6826139a7565b9150613a028284613939565b9150819050949350505050565b5f81519050919050565b5f82825260208201905092915050565b5f613a3382613a0f565b613a3d8185613a19565b9350613a4d818560208601612cc8565b613a5681612cd6565b840191505092915050565b5f608082019050613a745f830187612dcc565b613a816020830186612dcc565b613a8e6040830185612e5c565b8181036060830152613aa08184613a29565b905095945050505050565b5f81519050613ab981612c26565b92915050565b5f60208284031215613ad457613ad3612bf3565b5b5f613ae184828501613aab565b91505092915050565b7f4e487b71000000000000000000000000000000000000000000000000000000005f52601260045260245ffd5b5f613b2182612d3e565b9150613b2c83612d3e565b925082613b3c57613b3b613aea565b5b828204905092915050565b5f613b5182612d3e565b9150613b5c83612d3e565b9250828203905081811115613b7457613b7361374e565b5b92915050565b5f613b8482612d3e565b9150613b8f83612d3e565b925082613b9f57613b9e613aea565b5b828206905092915050565b7f4e487b71000000000000000000000000000000000000000000000000000000005f52603160045260245ffdfe68747470733a2f2f67656e657369782e72617868766c2e636f6d2f6170692f6e6674a2646970667358221220eb7868a2954604edfeb8621a91033040afa56398b480cde33b3c01fa6b6c28f864736f6c634300081c0033","linkReferences":{}},"methodIdentifiers":{"addApprover(address)":"b646c194","approve(address,uint256)":"095ea7b3","approveSubmission(uint256,string,address,string,uint256[])":"36b2b5b3","balanceOf(address)":"70a08231","completedChallenges(address,uint256)":"80405e3f","deadline()":"29dcb0cf","getApproved(uint256)":"081812fc","getChallengeId(uint256)":"40ec06e2","getNickname(address)":"adaccd74","getPoints(uint256)":"a967eee4","getTokenForChallenge(address,uint256)":"9e4de77f","isApprovedForAll(address,address)":"e985e9c5","isApprover(address)":"6d218e48","name()":"06fdde03","owner()":"8da5cb5b","ownerOf(uint256)":"6352211e","profiles(address)":"bbe15627","removeApprover(address)":"6cf4c88f","renounceOwnership()":"715018a6","safeTransferFrom(address,address,uint256)":"42842e0e","safeTransferFrom(address,address,uint256,bytes)":"b88d4fde","setApprovalForAll(address,bool)":"a22cb465","supportsInterface(bytes4)":"01ffc9a7","symbol()":"95d89b41","tokenByIndex(uint256)":"4f6ccce7","tokenChallenge(uint256)":"bef1ea16","tokenOfOwnerByIndex(address,uint256)":"2f745c59","tokenSubmission(uint256)":"0acb3a0e","tokenURI(uint256)":"c87b56dd","totalSupply()":"18160ddd","transferFrom(address,address,uint256)":"23b872dd","transferOwnership(address)":"f2fde38b"},"id":35}