{"abi":[{"type":"constructor","inputs":[{"name":"initialOwner","type":"address","internalType":"address"}],"stateMutability":"nonpayable"},{"type":"function","name":"addApprover","inputs":[{"name":"_approver","type":"address","internalType":"address"}],"outputs":[],"stateMutability":"nonpayable"},{"type":"function","name":"approve","inputs":[{"name":"to","type":"address","internalType":"address"},{"name":"tokenId","type":"uint256","internalType":"uint256"}],"outputs":[],"stateMutability":"nonpayable"},{"type":"function","name":"approveSubmission","inputs":[{"name":"challengeId","type":"uint256","internalType":"uint256"},{"name":"playerAddress","type":"address","internalType":"address"},{"name":"nickname","type":"string","internalType":"string"},{"name":"points","type":"uint256[]","internalType":"uint256[]"}],"outputs":[],"stateMutability":"nonpayable"},{"type":"function","name":"approvers","inputs":[{"name":"approver","type":"address","internalType":"address"}],"outputs":[{"name":"isApproved","type":"bool","internalType":"bool"}],"stateMutability":"view"},{"type":"function","name":"balanceOf","inputs":[{"name":"owner","type":"address","internalType":"address"}],"outputs":[{"name":"","type":"uint256","internalType":"uint256"}],"stateMutability":"view"},{"type":"function","name":"getApproved","inputs":[{"name":"tokenId","type":"uint256","internalType":"uint256"}],"outputs":[{"name":"","type":"address","internalType":"address"}],"stateMutability":"view"},{"type":"function","name":"isApprovedForAll","inputs":[{"name":"owner","type":"address","internalType":"address"},{"name":"operator","type":"address","internalType":"address"}],"outputs":[{"name":"","type":"bool","internalType":"bool"}],"stateMutability":"view"},{"type":"function","name":"name","inputs":[],"outputs":[{"name":"","type":"string","internalType":"string"}],"stateMutability":"view"},{"type":"function","name":"owner","inputs":[],"outputs":[{"name":"","type":"address","internalType":"address"}],"stateMutability":"view"},{"type":"function","name":"ownerOf","inputs":[{"name":"tokenId","type":"uint256","internalType":"uint256"}],"outputs":[{"name":"","type":"address","internalType":"address"}],"stateMutability":"view"},{"type":"function","name":"players","inputs":[{"name":"","type":"address","internalType":"address"}],"outputs":[{"name":"nickname","type":"string","internalType":"string"}],"stateMutability":"view"},{"type":"function","name":"removeApprover","inputs":[{"name":"_approver","type":"address","internalType":"address"}],"outputs":[],"stateMutability":"nonpayable"},{"type":"function","name":"renounceOwnership","inputs":[],"outputs":[],"stateMutability":"nonpayable"},{"type":"function","name":"safeTransferFrom","inputs":[{"name":"from","type":"address","internalType":"address"},{"name":"to","type":"address","internalType":"address"},{"name":"tokenId","type":"uint256","internalType":"uint256"}],"outputs":[],"stateMutability":"nonpayable"},{"type":"function","name":"safeTransferFrom","inputs":[{"name":"from","type":"address","internalType":"address"},{"name":"to","type":"address","internalType":"address"},{"name":"tokenId","type":"uint256","internalType":"uint256"},{"name":"data","type":"bytes","internalType":"bytes"}],"outputs":[],"stateMutability":"nonpayable"},{"type":"function","name":"setApprovalForAll","inputs":[{"name":"operator","type":"address","internalType":"address"},{"name":"approved","type":"bool","internalType":"bool"}],"outputs":[],"stateMutability":"nonpayable"},{"type":"function","name":"supportsInterface","inputs":[{"name":"interfaceId","type":"bytes4","internalType":"bytes4"}],"outputs":[{"name":"","type":"bool","internalType":"bool"}],"stateMutability":"view"},{"type":"function","name":"symbol","inputs":[],"outputs":[{"name":"","type":"string","internalType":"string"}],"stateMutability":"view"},{"type":"function","name":"tokenToChallengeId","inputs":[{"name":"tokenId","type":"uint256","internalType":"uint256"}],"outputs":[{"name":"challengeId","type":"uint256","internalType":"uint256"}],"stateMutability":"view"},{"type":"function","name":"tokenURI","inputs":[{"name":"tokenId","type":"uint256","internalType":"uint256"}],"outputs":[{"name":"","type":"string","internalType":"string"}],"stateMutability":"view"},{"type":"function","name":"transferFrom","inputs":[{"name":"from","type":"address","internalType":"address"},{"name":"to","type":"address","internalType":"address"},{"name":"tokenId","type":"uint256","internalType":"uint256"}],"outputs":[],"stateMutability":"nonpayable"},{"type":"function","name":"transferOwnership","inputs":[{"name":"newOwner","type":"address","internalType":"address"}],"outputs":[],"stateMutability":"nonpayable"},{"type":"event","name":"Approval","inputs":[{"name":"owner","type":"address","indexed":true,"internalType":"address"},{"name":"approved","type":"address","indexed":true,"internalType":"address"},{"name":"tokenId","type":"uint256","indexed":true,"internalType":"uint256"}],"anonymous":false},{"type":"event","name":"ApprovalForAll","inputs":[{"name":"owner","type":"address","indexed":true,"internalType":"address"},{"name":"operator","type":"address","indexed":true,"internalType":"address"},{"name":"approved","type":"bool","indexed":false,"internalType":"bool"}],"anonymous":false},{"type":"event","name":"ApproverAdded","inputs":[{"name":"approver","type":"address","indexed":true,"internalType":"address"}],"anonymous":false},{"type":"event","name":"ApproverRemoved","inputs":[{"name":"approver","type":"address","indexed":true,"internalType":"address"}],"anonymous":false},{"type":"event","name":"OwnershipTransferred","inputs":[{"name":"previousOwner","type":"address","indexed":true,"internalType":"address"},{"name":"newOwner","type":"address","indexed":true,"internalType":"address"}],"anonymous":false},{"type":"event","name":"Transfer","inputs":[{"name":"from","type":"address","indexed":true,"internalType":"address"},{"name":"to","type":"address","indexed":true,"internalType":"address"},{"name":"tokenId","type":"uint256","indexed":true,"internalType":"uint256"}],"anonymous":false},{"type":"error","name":"ERC721IncorrectOwner","inputs":[{"name":"sender","type":"address","internalType":"address"},{"name":"tokenId","type":"uint256","internalType":"uint256"},{"name":"owner","type":"address","internalType":"address"}]},{"type":"error","name":"ERC721InsufficientApproval","inputs":[{"name":"operator","type":"address","internalType":"address"},{"name":"tokenId","type":"uint256","internalType":"uint256"}]},{"type":"error","name":"ERC721InvalidApprover","inputs":[{"name":"approver","type":"address","internalType":"address"}]},{"type":"error","name":"ERC721InvalidOperator","inputs":[{"name":"operator","type":"address","internalType":"address"}]},{"type":"error","name":"ERC721InvalidOwner","inputs":[{"name":"owner","type":"address","internalType":"address"}]},{"type":"error","name":"ERC721InvalidReceiver","inputs":[{"name":"receiver","type":"address","internalType":"address"}]},{"type":"error","name":"ERC721InvalidSender","inputs":[{"name":"sender","type":"address","internalType":"address"}]},{"type":"error","name":"ERC721NonexistentToken","inputs":[{"name":"tokenId","type":"uint256","internalType":"uint256"}]},{"type":"error","name":"OwnableInvalidOwner","inputs":[{"name":"owner","type":"address","internalType":"address"}]},{"type":"error","name":"OwnableUnauthorizedAccount","inputs":[{"name":"account","type":"address","internalType":"address"}]},{"type":"error","name":"Unauthorized","inputs":[]}],"bytecode":{"object":"0x608060405234801561000f575f5ffd5b506040516131b53803806131b583398181016040528101906100319190610266565b806040518060400160405280600c81526020017f4f6e636861696e204461797300000000000000000000000000000000000000008152506040518060400160405280600381526020017f4f43440000000000000000000000000000000000000000000000000000000000815250815f90816100ac91906104ce565b5080600190816100bc91906104ce565b5050505f73ffffffffffffffffffffffffffffffffffffffff168173ffffffffffffffffffffffffffffffffffffffff160361012f575f6040517f1e4fbdf700000000000000000000000000000000000000000000000000000000815260040161012691906105ac565b60405180910390fd5b61013e8161014560201b60201c565b50506105c5565b5f60065f9054906101000a900473ffffffffffffffffffffffffffffffffffffffff1690508160065f6101000a81548173ffffffffffffffffffffffffffffffffffffffff021916908373ffffffffffffffffffffffffffffffffffffffff1602179055508173ffffffffffffffffffffffffffffffffffffffff168173ffffffffffffffffffffffffffffffffffffffff167f8be0079c531659141344cd1fd0a4f28419497f9722a3daafe3b4186f6b6457e060405160405180910390a35050565b5f5ffd5b5f73ffffffffffffffffffffffffffffffffffffffff82169050919050565b5f6102358261020c565b9050919050565b6102458161022b565b811461024f575f5ffd5b50565b5f815190506102608161023c565b92915050565b5f6020828403121561027b5761027a610208565b5b5f61028884828501610252565b91505092915050565b5f81519050919050565b7f4e487b71000000000000000000000000000000000000000000000000000000005f52604160045260245ffd5b7f4e487b71000000000000000000000000000000000000000000000000000000005f52602260045260245ffd5b5f600282049050600182168061030c57607f821691505b60208210810361031f5761031e6102c8565b5b50919050565b5f819050815f5260205f209050919050565b5f6020601f8301049050919050565b5f82821b905092915050565b5f600883026103817fffffffffffffffffffffffffffffffffffffffffffffffffffffffffffffffff82610346565b61038b8683610346565b95508019841693508086168417925050509392505050565b5f819050919050565b5f819050919050565b5f6103cf6103ca6103c5846103a3565b6103ac565b6103a3565b9050919050565b5f819050919050565b6103e8836103b5565b6103fc6103f4826103d6565b848454610352565b825550505050565b5f5f905090565b610413610404565b61041e8184846103df565b505050565b5b81811015610441576104365f8261040b565b600181019050610424565b5050565b601f8211156104865761045781610325565b61046084610337565b8101602085101561046f578190505b61048361047b85610337565b830182610423565b50505b505050565b5f82821c905092915050565b5f6104a65f198460080261048b565b1980831691505092915050565b5f6104be8383610497565b9150826002028217905092915050565b6104d782610291565b67ffffffffffffffff8111156104f0576104ef61029b565b5b6104fa82546102f5565b610505828285610445565b5f60209050601f831160018114610536575f8415610524578287015190505b61052e85826104b3565b865550610595565b601f19841661054486610325565b5f5b8281101561056b57848901518255600182019150602085019450602081019050610546565b868310156105885784890151610584601f891682610497565b8355505b6001600288020188555050505b505050505050565b6105a68161022b565b82525050565b5f6020820190506105bf5f83018461059d565b92915050565b612be3806105d25f395ff3fe608060405234801561000f575f5ffd5b5060043610610140575f3560e01c80637307b38b116100b6578063b88d4fde1161007a578063b88d4fde1461035c578063c87b56dd14610378578063e2eb41ff146103a8578063e985e9c5146103d8578063ebcdd1ab14610408578063f2fde38b1461043857610140565b80637307b38b146102cc5780638da5cb5b146102e857806395d89b4114610306578063a22cb46514610324578063b646c1941461034057610140565b806323b872dd1161010857806323b872dd1461020e57806342842e0e1461022a5780636352211e146102465780636cf4c88f1461027657806370a0823114610292578063715018a6146102c257610140565b806301ffc9a71461014457806306fdde0314610174578063081812fc14610192578063095ea7b3146101c25780630a144391146101de575b5f5ffd5b61015e60048036038101906101599190611e63565b610454565b60405161016b9190611ea8565b60405180910390f35b61017c610535565b6040516101899190611f31565b60405180910390f35b6101ac60048036038101906101a79190611f84565b6105c4565b6040516101b99190611fee565b60405180910390f35b6101dc60048036038101906101d79190612031565b6105df565b005b6101f860048036038101906101f3919061206f565b6105f5565b6040516102059190611ea8565b60405180910390f35b6102286004803603810190610223919061209a565b610612565b005b610244600480360381019061023f919061209a565b610711565b005b610260600480360381019061025b9190611f84565b610730565b60405161026d9190611fee565b60405180910390f35b610290600480360381019061028b919061206f565b610741565b005b6102ac60048036038101906102a7919061206f565b61086c565b6040516102b991906120f9565b60405180910390f35b6102ca610922565b005b6102e660048036038101906102e191906121c8565b610935565b005b6102f0610aff565b6040516102fd9190611fee565b60405180910390f35b61030e610b27565b60405161031b9190611f31565b60405180910390f35b61033e60048036038101906103399190612295565b610bb7565b005b61035a6004803603810190610355919061206f565b610bcd565b005b610376600480360381019061037191906123fb565b610cfa565b005b610392600480360381019061038d9190611f84565b610d1f565b60405161039f9190611f31565b60405180910390f35b6103c260048036038101906103bd919061206f565b610d85565b6040516103cf9190611f31565b60405180910390f35b6103f260048036038101906103ed919061247b565b610e25565b6040516103ff9190611ea8565b60405180910390f35b610422600480360381019061041d9190611f84565b610eb3565b60405161042f91906120f9565b60405180910390f35b610452600480360381019061044d919061206f565b610ec8565b005b5f7f80ac58cd000000000000000000000000000000000000000000000000000000007bffffffffffffffffffffffffffffffffffffffffffffffffffffffff1916827bffffffffffffffffffffffffffffffffffffffffffffffffffffffff1916148061051e57507f5b5e139f000000000000000000000000000000000000000000000000000000007bffffffffffffffffffffffffffffffffffffffffffffffffffffffff1916827bffffffffffffffffffffffffffffffffffffffffffffffffffffffff1916145b8061052e575061052d82610f4c565b5b9050919050565b60605f8054610543906124e6565b80601f016020809104026020016040519081016040528092919081815260200182805461056f906124e6565b80156105ba5780601f10610591576101008083540402835291602001916105ba565b820191905f5260205f20905b81548152906001019060200180831161059d57829003601f168201915b5050505050905090565b5f6105ce82610fb5565b506105d88261103b565b9050919050565b6105f182826105ec611074565b61107b565b5050565b6008602052805f5260405f205f915054906101000a900460ff1681565b5f73ffffffffffffffffffffffffffffffffffffffff168273ffffffffffffffffffffffffffffffffffffffff1603610682575f6040517f64a0ae920000000000000000000000000000000000000000000000000000000081526004016106799190611fee565b60405180910390fd5b5f6106958383610690611074565b61108d565b90508373ffffffffffffffffffffffffffffffffffffffff168173ffffffffffffffffffffffffffffffffffffffff161461070b578382826040517f64283d7b00000000000000000000000000000000000000000000000000000000815260040161070293929190612516565b60405180910390fd5b50505050565b61072b83838360405180602001604052805f815250610cfa565b505050565b5f61073a82610fb5565b9050919050565b610749611298565b60085f8273ffffffffffffffffffffffffffffffffffffffff1673ffffffffffffffffffffffffffffffffffffffff1681526020019081526020015f205f9054906101000a900460ff166107d2576040517f08c379a00000000000000000000000000000000000000000000000000000000081526004016107c990612595565b60405180910390fd5b5f60085f8373ffffffffffffffffffffffffffffffffffffffff1673ffffffffffffffffffffffffffffffffffffffff1681526020019081526020015f205f6101000a81548160ff0219169083151502179055508073ffffffffffffffffffffffffffffffffffffffff167fc6e35658c76ecdde40a54f31a91fb7c8615e9893cc0885584b27bb3433270d4660405160405180910390a250565b5f5f73ffffffffffffffffffffffffffffffffffffffff168273ffffffffffffffffffffffffffffffffffffffff16036108dd575f6040517f89c62b640000000000000000000000000000000000000000000000000000000081526004016108d49190611fee565b60405180910390fd5b60035f8373ffffffffffffffffffffffffffffffffffffffff1673ffffffffffffffffffffffffffffffffffffffff1681526020019081526020015f20549050919050565b61092a611298565b6109335f61131f565b565b60085f3373ffffffffffffffffffffffffffffffffffffffff1673ffffffffffffffffffffffffffffffffffffffff1681526020019081526020015f205f9054906101000a900460ff166109b5576040517f82b4290000000000000000000000000000000000000000000000000000000000815260040160405180910390fd5b5f60095f8773ffffffffffffffffffffffffffffffffffffffff1673ffffffffffffffffffffffffffffffffffffffff1681526020019081526020015f2090505f85859050118015610a3557508484604051610a129291906125e1565b6040518091039020815f01604051610a2a919061268b565b604051809103902014155b15610a4e578484825f019182610a4c92919061284b565b505b5f5f90505b83839050811015610abb57816001015f8981526020019081526020015f20848483818110610a8457610a83612918565b5b90506020020135908060018154018082558091505060019003905f5260205f20015f90919091909150558080600101915050610a53565b505f60075f815480929190610acf90612972565b91905055905087600a5f8381526020019081526020015f2081905550610af587826113e2565b5050505050505050565b5f60065f9054906101000a900473ffffffffffffffffffffffffffffffffffffffff16905090565b606060018054610b36906124e6565b80601f0160208091040260200160405190810160405280929190818152602001828054610b62906124e6565b8015610bad5780601f10610b8457610100808354040283529160200191610bad565b820191905f5260205f20905b815481529060010190602001808311610b9057829003601f168201915b5050505050905090565b610bc9610bc2611074565b83836113ff565b5050565b610bd5611298565b60085f8273ffffffffffffffffffffffffffffffffffffffff1673ffffffffffffffffffffffffffffffffffffffff1681526020019081526020015f205f9054906101000a900460ff1615610c5f576040517f08c379a0000000000000000000000000000000000000000000000000000000008152600401610c5690612a03565b60405180910390fd5b600160085f8373ffffffffffffffffffffffffffffffffffffffff1673ffffffffffffffffffffffffffffffffffffffff1681526020019081526020015f205f6101000a81548160ff0219169083151502179055508073ffffffffffffffffffffffffffffffffffffffff167f835bddf1ceee4956e4329af9edf018523c1191238187a597453f6020bcadb04260405160405180910390a250565b610d05848484610612565b610d19610d10611074565b85858585611568565b50505050565b6060610d2a82610fb5565b505f610d34611714565b90505f815111610d525760405180602001604052805f815250610d7d565b80610d5c84611751565b604051602001610d6d929190612a5b565b6040516020818303038152906040525b915050919050565b6009602052805f5260405f205f91509050805f018054610da4906124e6565b80601f0160208091040260200160405190810160405280929190818152602001828054610dd0906124e6565b8015610e1b5780601f10610df257610100808354040283529160200191610e1b565b820191905f5260205f20905b815481529060010190602001808311610dfe57829003601f168201915b5050505050905081565b5f60055f8473ffffffffffffffffffffffffffffffffffffffff1673ffffffffffffffffffffffffffffffffffffffff1681526020019081526020015f205f8373ffffffffffffffffffffffffffffffffffffffff1673ffffffffffffffffffffffffffffffffffffffff1681526020019081526020015f205f9054906101000a900460ff16905092915050565b600a602052805f5260405f205f915090505481565b610ed0611298565b5f73ffffffffffffffffffffffffffffffffffffffff168173ffffffffffffffffffffffffffffffffffffffff1603610f40575f6040517f1e4fbdf7000000000000000000000000000000000000000000000000000000008152600401610f379190611fee565b60405180910390fd5b610f498161131f565b50565b5f7f01ffc9a7000000000000000000000000000000000000000000000000000000007bffffffffffffffffffffffffffffffffffffffffffffffffffffffff1916827bffffffffffffffffffffffffffffffffffffffffffffffffffffffff1916149050919050565b5f5f610fc08361181b565b90505f73ffffffffffffffffffffffffffffffffffffffff168173ffffffffffffffffffffffffffffffffffffffff160361103257826040517f7e27328900000000000000000000000000000000000000000000000000000000815260040161102991906120f9565b60405180910390fd5b80915050919050565b5f60045f8381526020019081526020015f205f9054906101000a900473ffffffffffffffffffffffffffffffffffffffff169050919050565b5f33905090565b6110888383836001611854565b505050565b5f5f6110988461181b565b90505f73ffffffffffffffffffffffffffffffffffffffff168373ffffffffffffffffffffffffffffffffffffffff16146110d9576110d8818486611a13565b5b5f73ffffffffffffffffffffffffffffffffffffffff168173ffffffffffffffffffffffffffffffffffffffff1614611164576111185f855f5f611854565b600160035f8373ffffffffffffffffffffffffffffffffffffffff1673ffffffffffffffffffffffffffffffffffffffff1681526020019081526020015f205f82825403925050819055505b5f73ffffffffffffffffffffffffffffffffffffffff168573ffffffffffffffffffffffffffffffffffffffff16146111e357600160035f8773ffffffffffffffffffffffffffffffffffffffff1673ffffffffffffffffffffffffffffffffffffffff1681526020019081526020015f205f82825401925050819055505b8460025f8681526020019081526020015f205f6101000a81548173ffffffffffffffffffffffffffffffffffffffff021916908373ffffffffffffffffffffffffffffffffffffffff160217905550838573ffffffffffffffffffffffffffffffffffffffff168273ffffffffffffffffffffffffffffffffffffffff167fddf252ad1be2c89b69c2b068fc378daa952ba7f163c4a11628f55a4df523b3ef60405160405180910390a4809150509392505050565b6112a0611074565b73ffffffffffffffffffffffffffffffffffffffff166112be610aff565b73ffffffffffffffffffffffffffffffffffffffff161461131d576112e1611074565b6040517f118cdaa70000000000000000000000000000000000000000000000000000000081526004016113149190611fee565b60405180910390fd5b565b5f60065f9054906101000a900473ffffffffffffffffffffffffffffffffffffffff1690508160065f6101000a81548173ffffffffffffffffffffffffffffffffffffffff021916908373ffffffffffffffffffffffffffffffffffffffff1602179055508173ffffffffffffffffffffffffffffffffffffffff168173ffffffffffffffffffffffffffffffffffffffff167f8be0079c531659141344cd1fd0a4f28419497f9722a3daafe3b4186f6b6457e060405160405180910390a35050565b6113fb828260405180602001604052805f815250611ad6565b5050565b5f73ffffffffffffffffffffffffffffffffffffffff168273ffffffffffffffffffffffffffffffffffffffff160361146f57816040517f5b08ba180000000000000000000000000000000000000000000000000000000081526004016114669190611fee565b60405180910390fd5b8060055f8573ffffffffffffffffffffffffffffffffffffffff1673ffffffffffffffffffffffffffffffffffffffff1681526020019081526020015f205f8473ffffffffffffffffffffffffffffffffffffffff1673ffffffffffffffffffffffffffffffffffffffff1681526020019081526020015f205f6101000a81548160ff0219169083151502179055508173ffffffffffffffffffffffffffffffffffffffff168373ffffffffffffffffffffffffffffffffffffffff167f17307eab39ab6107e8899845ad3d59bd9653f200f220920489ca2b5937696c318360405161155b9190611ea8565b60405180910390a3505050565b5f8373ffffffffffffffffffffffffffffffffffffffff163b111561170d578273ffffffffffffffffffffffffffffffffffffffff1663150b7a02868685856040518563ffffffff1660e01b81526004016115c69493929190612ad0565b6020604051808303815f875af192505050801561160157506040513d601f19601f820116820180604052508101906115fe9190612b2e565b60015b611682573d805f811461162f576040519150601f19603f3d011682016040523d82523d5f602084013e611634565b606091505b505f81510361167a57836040517f64a0ae920000000000000000000000000000000000000000000000000000000081526004016116719190611fee565b60405180910390fd5b805181602001fd5b63150b7a0260e01b7bffffffffffffffffffffffffffffffffffffffffffffffffffffffff1916817bffffffffffffffffffffffffffffffffffffffffffffffffffffffff19161461170b57836040517f64a0ae920000000000000000000000000000000000000000000000000000000081526004016117029190611fee565b60405180910390fd5b505b5050505050565b60606040518060400160405280601581526020017f687474703a2f2f544f444f2e636f6d2f746f6b656e0000000000000000000000815250905090565b60605f600161175f84611af9565b0190505f8167ffffffffffffffff81111561177d5761177c6122d7565b5b6040519080825280601f01601f1916602001820160405280156117af5781602001600182028036833780820191505090505b5090505f82602001820190505b600115611810578080600190039150507f3031323334353637383961626364656600000000000000000000000000000000600a86061a8153600a858161180557611804612b59565b5b0494505f85036117bc575b819350505050919050565b5f60025f8381526020019081526020015f205f9054906101000a900473ffffffffffffffffffffffffffffffffffffffff169050919050565b808061188c57505f73ffffffffffffffffffffffffffffffffffffffff168273ffffffffffffffffffffffffffffffffffffffff1614155b156119be575f61189b84610fb5565b90505f73ffffffffffffffffffffffffffffffffffffffff168373ffffffffffffffffffffffffffffffffffffffff161415801561190557508273ffffffffffffffffffffffffffffffffffffffff168173ffffffffffffffffffffffffffffffffffffffff1614155b801561191857506119168184610e25565b155b1561195a57826040517fa9fbf51f0000000000000000000000000000000000000000000000000000000081526004016119519190611fee565b60405180910390fd5b81156119bc57838573ffffffffffffffffffffffffffffffffffffffff168273ffffffffffffffffffffffffffffffffffffffff167f8c5be1e5ebec7d5bd14f71427d1e84f3dd0314c0f7b2291e5b200ac8c7c3b92560405160405180910390a45b505b8360045f8581526020019081526020015f205f6101000a81548173ffffffffffffffffffffffffffffffffffffffff021916908373ffffffffffffffffffffffffffffffffffffffff16021790555050505050565b611a1e838383611c4a565b611ad1575f73ffffffffffffffffffffffffffffffffffffffff168373ffffffffffffffffffffffffffffffffffffffff1603611a9257806040517f7e273289000000000000000000000000000000000000000000000000000000008152600401611a8991906120f9565b60405180910390fd5b81816040517f177e802f000000000000000000000000000000000000000000000000000000008152600401611ac8929190612b86565b60405180910390fd5b505050565b611ae08383611d0a565b611af4611aeb611074565b5f858585611568565b505050565b5f5f5f90507a184f03e93ff9f4daa797ed6e38ed64bf6a1f0100000000000000008310611b55577a184f03e93ff9f4daa797ed6e38ed64bf6a1f0100000000000000008381611b4b57611b4a612b59565b5b0492506040810190505b6d04ee2d6d415b85acef81000000008310611b92576d04ee2d6d415b85acef81000000008381611b8857611b87612b59565b5b0492506020810190505b662386f26fc100008310611bc157662386f26fc100008381611bb757611bb6612b59565b5b0492506010810190505b6305f5e1008310611bea576305f5e1008381611be057611bdf612b59565b5b0492506008810190505b6127108310611c0f576127108381611c0557611c04612b59565b5b0492506004810190505b60648310611c325760648381611c2857611c27612b59565b5b0492506002810190505b600a8310611c41576001810190505b80915050919050565b5f5f73ffffffffffffffffffffffffffffffffffffffff168373ffffffffffffffffffffffffffffffffffffffff1614158015611d0157508273ffffffffffffffffffffffffffffffffffffffff168473ffffffffffffffffffffffffffffffffffffffff161480611cc25750611cc18484610e25565b5b80611d0057508273ffffffffffffffffffffffffffffffffffffffff16611ce88361103b565b73ffffffffffffffffffffffffffffffffffffffff16145b5b90509392505050565b5f73ffffffffffffffffffffffffffffffffffffffff168273ffffffffffffffffffffffffffffffffffffffff1603611d7a575f6040517f64a0ae92000000000000000000000000000000000000000000000000000000008152600401611d719190611fee565b60405180910390fd5b5f611d8683835f61108d565b90505f73ffffffffffffffffffffffffffffffffffffffff168173ffffffffffffffffffffffffffffffffffffffff1614611df8575f6040517f73c6ac6e000000000000000000000000000000000000000000000000000000008152600401611def9190611fee565b60405180910390fd5b505050565b5f604051905090565b5f5ffd5b5f5ffd5b5f7fffffffff0000000000000000000000000000000000000000000000000000000082169050919050565b611e4281611e0e565b8114611e4c575f5ffd5b50565b5f81359050611e5d81611e39565b92915050565b5f60208284031215611e7857611e77611e06565b5b5f611e8584828501611e4f565b91505092915050565b5f8115159050919050565b611ea281611e8e565b82525050565b5f602082019050611ebb5f830184611e99565b92915050565b5f81519050919050565b5f82825260208201905092915050565b8281835e5f83830152505050565b5f601f19601f8301169050919050565b5f611f0382611ec1565b611f0d8185611ecb565b9350611f1d818560208601611edb565b611f2681611ee9565b840191505092915050565b5f6020820190508181035f830152611f498184611ef9565b905092915050565b5f819050919050565b611f6381611f51565b8114611f6d575f5ffd5b50565b5f81359050611f7e81611f5a565b92915050565b5f60208284031215611f9957611f98611e06565b5b5f611fa684828501611f70565b91505092915050565b5f73ffffffffffffffffffffffffffffffffffffffff82169050919050565b5f611fd882611faf565b9050919050565b611fe881611fce565b82525050565b5f6020820190506120015f830184611fdf565b92915050565b61201081611fce565b811461201a575f5ffd5b50565b5f8135905061202b81612007565b92915050565b5f5f6040838503121561204757612046611e06565b5b5f6120548582860161201d565b925050602061206585828601611f70565b9150509250929050565b5f6020828403121561208457612083611e06565b5b5f6120918482850161201d565b91505092915050565b5f5f5f606084860312156120b1576120b0611e06565b5b5f6120be8682870161201d565b93505060206120cf8682870161201d565b92505060406120e086828701611f70565b9150509250925092565b6120f381611f51565b82525050565b5f60208201905061210c5f8301846120ea565b92915050565b5f5ffd5b5f5ffd5b5f5ffd5b5f5f83601f84011261213357612132612112565b5b8235905067ffffffffffffffff8111156121505761214f612116565b5b60208301915083600182028301111561216c5761216b61211a565b5b9250929050565b5f5f83601f84011261218857612187612112565b5b8235905067ffffffffffffffff8111156121a5576121a4612116565b5b6020830191508360208202830111156121c1576121c061211a565b5b9250929050565b5f5f5f5f5f5f608087890312156121e2576121e1611e06565b5b5f6121ef89828a01611f70565b965050602061220089828a0161201d565b955050604087013567ffffffffffffffff81111561222157612220611e0a565b5b61222d89828a0161211e565b9450945050606087013567ffffffffffffffff8111156122505761224f611e0a565b5b61225c89828a01612173565b92509250509295509295509295565b61227481611e8e565b811461227e575f5ffd5b50565b5f8135905061228f8161226b565b92915050565b5f5f604083850312156122ab576122aa611e06565b5b5f6122b88582860161201d565b92505060206122c985828601612281565b9150509250929050565b5f5ffd5b7f4e487b71000000000000000000000000000000000000000000000000000000005f52604160045260245ffd5b61230d82611ee9565b810181811067ffffffffffffffff8211171561232c5761232b6122d7565b5b80604052505050565b5f61233e611dfd565b905061234a8282612304565b919050565b5f67ffffffffffffffff821115612369576123686122d7565b5b61237282611ee9565b9050602081019050919050565b828183375f83830152505050565b5f61239f61239a8461234f565b612335565b9050828152602081018484840111156123bb576123ba6122d3565b5b6123c684828561237f565b509392505050565b5f82601f8301126123e2576123e1612112565b5b81356123f284826020860161238d565b91505092915050565b5f5f5f5f6080858703121561241357612412611e06565b5b5f6124208782880161201d565b94505060206124318782880161201d565b935050604061244287828801611f70565b925050606085013567ffffffffffffffff81111561246357612462611e0a565b5b61246f878288016123ce565b91505092959194509250565b5f5f6040838503121561249157612490611e06565b5b5f61249e8582860161201d565b92505060206124af8582860161201d565b9150509250929050565b7f4e487b71000000000000000000000000000000000000000000000000000000005f52602260045260245ffd5b5f60028204905060018216806124fd57607f821691505b6020821081036125105761250f6124b9565b5b50919050565b5f6060820190506125295f830186611fdf565b61253660208301856120ea565b6125436040830184611fdf565b949350505050565b7f4e6f7420617070726f76657200000000000000000000000000000000000000005f82015250565b5f61257f600c83611ecb565b915061258a8261254b565b602082019050919050565b5f6020820190508181035f8301526125ac81612573565b9050919050565b5f81905092915050565b5f6125c883856125b3565b93506125d583858461237f565b82840190509392505050565b5f6125ed8284866125bd565b91508190509392505050565b5f819050815f5260205f209050919050565b5f8154612617816124e6565b61262181866125b3565b9450600182165f811461263b576001811461265057612682565b60ff1983168652811515820286019350612682565b612659856125f9565b5f5b8381101561267a5781548189015260018201915060208101905061265b565b838801955050505b50505092915050565b5f612696828461260b565b915081905092915050565b5f82905092915050565b5f819050815f5260205f209050919050565b5f6020601f8301049050919050565b5f82821b905092915050565b5f600883026127077fffffffffffffffffffffffffffffffffffffffffffffffffffffffffffffffff826126cc565b61271186836126cc565b95508019841693508086168417925050509392505050565b5f819050919050565b5f61274c61274761274284611f51565b612729565b611f51565b9050919050565b5f819050919050565b61276583612732565b61277961277182612753565b8484546126d8565b825550505050565b5f5f905090565b612790612781565b61279b81848461275c565b505050565b5b818110156127be576127b35f82612788565b6001810190506127a1565b5050565b601f821115612803576127d4816126ab565b6127dd846126bd565b810160208510156127ec578190505b6128006127f8856126bd565b8301826127a0565b50505b505050565b5f82821c905092915050565b5f6128235f1984600802612808565b1980831691505092915050565b5f61283b8383612814565b9150826002028217905092915050565b61285583836126a1565b67ffffffffffffffff81111561286e5761286d6122d7565b5b61287882546124e6565b6128838282856127c2565b5f601f8311600181146128b0575f841561289e578287013590505b6128a88582612830565b86555061290f565b601f1984166128be866126ab565b5f5b828110156128e5578489013582556001820191506020850194506020810190506128c0565b8683101561290257848901356128fe601f891682612814565b8355505b6001600288020188555050505b50505050505050565b7f4e487b71000000000000000000000000000000000000000000000000000000005f52603260045260245ffd5b7f4e487b71000000000000000000000000000000000000000000000000000000005f52601160045260245ffd5b5f61297c82611f51565b91507fffffffffffffffffffffffffffffffffffffffffffffffffffffffffffffffff82036129ae576129ad612945565b5b600182019050919050565b7f416c726561647920617070726f766572000000000000000000000000000000005f82015250565b5f6129ed601083611ecb565b91506129f8826129b9565b602082019050919050565b5f6020820190508181035f830152612a1a816129e1565b9050919050565b5f81905092915050565b5f612a3582611ec1565b612a3f8185612a21565b9350612a4f818560208601611edb565b80840191505092915050565b5f612a668285612a2b565b9150612a728284612a2b565b91508190509392505050565b5f81519050919050565b5f82825260208201905092915050565b5f612aa282612a7e565b612aac8185612a88565b9350612abc818560208601611edb565b612ac581611ee9565b840191505092915050565b5f608082019050612ae35f830187611fdf565b612af06020830186611fdf565b612afd60408301856120ea565b8181036060830152612b0f8184612a98565b905095945050505050565b5f81519050612b2881611e39565b92915050565b5f60208284031215612b4357612b42611e06565b5b5f612b5084828501612b1a565b91505092915050565b7f4e487b71000000000000000000000000000000000000000000000000000000005f52601260045260245ffd5b5f604082019050612b995f830185611fdf565b612ba660208301846120ea565b939250505056fea264697066735822122045ffbe2e64a5f95c164dae3c2df3bc2a62b665bbd9f095f4d123242898e475a064736f6c634300081c0033","linkReferences":{}},"methodIdentifiers":{"addApprover(address)":"b646c194","approve(address,uint256)":"095ea7b3","approveSubmission(uint256,address,string,uint256[])":"7307b38b","approvers(address)":"0a144391","balanceOf(address)":"70a08231","getApproved(uint256)":"081812fc","isApprovedForAll(address,address)":"e985e9c5","name()":"06fdde03","owner()":"8da5cb5b","ownerOf(uint256)":"6352211e","players(address)":"e2eb41ff","removeApprover(address)":"6cf4c88f","renounceOwnership()":"715018a6","safeTransferFrom(address,address,uint256)":"42842e0e","safeTransferFrom(address,address,uint256,bytes)":"b88d4fde","setApprovalForAll(address,bool)":"a22cb465","supportsInterface(bytes4)":"01ffc9a7","symbol()":"95d89b41","tokenToChallengeId(uint256)":"ebcdd1ab","tokenURI(uint256)":"c87b56dd","transferFrom(address,address,uint256)":"23b872dd","transferOwnership(address)":"f2fde38b"},"id":33}