{"abi":[{"type":"constructor","inputs":[{"name":"initialOwner","type":"address","internalType":"address"}],"stateMutability":"nonpayable"},{"type":"function","name":"addApprover","inputs":[{"name":"account","type":"address","internalType":"address"}],"outputs":[],"stateMutability":"nonpayable"},{"type":"function","name":"approve","inputs":[{"name":"to","type":"address","internalType":"address"},{"name":"tokenId","type":"uint256","internalType":"uint256"}],"outputs":[],"stateMutability":"nonpayable"},{"type":"function","name":"approveSubmission","inputs":[{"name":"challengeId","type":"uint256","internalType":"uint256"},{"name":"submissionId","type":"string","internalType":"string"},{"name":"playerAddress","type":"address","internalType":"address"},{"name":"nickname","type":"string","internalType":"string"},{"name":"points","type":"uint256[]","internalType":"uint256[]"}],"outputs":[],"stateMutability":"nonpayable"},{"type":"function","name":"balanceOf","inputs":[{"name":"owner","type":"address","internalType":"address"}],"outputs":[{"name":"","type":"uint256","internalType":"uint256"}],"stateMutability":"view"},{"type":"function","name":"deadline","inputs":[],"outputs":[{"name":"","type":"uint256","internalType":"uint256"}],"stateMutability":"view"},{"type":"function","name":"getApproved","inputs":[{"name":"tokenId","type":"uint256","internalType":"uint256"}],"outputs":[{"name":"","type":"address","internalType":"address"}],"stateMutability":"view"},{"type":"function","name":"getChallengeId","inputs":[{"name":"tokenId","type":"uint256","internalType":"uint256"}],"outputs":[{"name":"","type":"uint256","internalType":"uint256"}],"stateMutability":"view"},{"type":"function","name":"getNickname","inputs":[{"name":"playerAddress","type":"address","internalType":"address"}],"outputs":[{"name":"","type":"string","internalType":"string"}],"stateMutability":"view"},{"type":"function","name":"getPoints","inputs":[{"name":"playerAddress","type":"address","internalType":"address"},{"name":"challengeId","type":"uint256","internalType":"uint256"},{"name":"submissionId","type":"string","internalType":"string"}],"outputs":[{"name":"","type":"uint256[]","internalType":"uint256[]"}],"stateMutability":"view"},{"type":"function","name":"isApprovedForAll","inputs":[{"name":"owner","type":"address","internalType":"address"},{"name":"operator","type":"address","internalType":"address"}],"outputs":[{"name":"","type":"bool","internalType":"bool"}],"stateMutability":"view"},{"type":"function","name":"isApprover","inputs":[{"name":"","type":"address","internalType":"address"}],"outputs":[{"name":"","type":"bool","internalType":"bool"}],"stateMutability":"view"},{"type":"function","name":"name","inputs":[],"outputs":[{"name":"","type":"string","internalType":"string"}],"stateMutability":"view"},{"type":"function","name":"owner","inputs":[],"outputs":[{"name":"","type":"address","internalType":"address"}],"stateMutability":"view"},{"type":"function","name":"ownerOf","inputs":[{"name":"tokenId","type":"uint256","internalType":"uint256"}],"outputs":[{"name":"","type":"address","internalType":"address"}],"stateMutability":"view"},{"type":"function","name":"profiles","inputs":[{"name":"","type":"address","internalType":"address"}],"outputs":[{"name":"nickname","type":"string","internalType":"string"}],"stateMutability":"view"},{"type":"function","name":"removeApprover","inputs":[{"name":"account","type":"address","internalType":"address"}],"outputs":[],"stateMutability":"nonpayable"},{"type":"function","name":"renounceOwnership","inputs":[],"outputs":[],"stateMutability":"nonpayable"},{"type":"function","name":"safeTransferFrom","inputs":[{"name":"from","type":"address","internalType":"address"},{"name":"to","type":"address","internalType":"address"},{"name":"tokenId","type":"uint256","internalType":"uint256"}],"outputs":[],"stateMutability":"nonpayable"},{"type":"function","name":"safeTransferFrom","inputs":[{"name":"from","type":"address","internalType":"address"},{"name":"to","type":"address","internalType":"address"},{"name":"tokenId","type":"uint256","internalType":"uint256"},{"name":"data","type":"bytes","internalType":"bytes"}],"outputs":[],"stateMutability":"nonpayable"},{"type":"function","name":"setApprovalForAll","inputs":[{"name":"operator","type":"address","internalType":"address"},{"name":"approved","type":"bool","internalType":"bool"}],"outputs":[],"stateMutability":"nonpayable"},{"type":"function","name":"supportsInterface","inputs":[{"name":"interfaceId","type":"bytes4","internalType":"bytes4"}],"outputs":[{"name":"","type":"bool","internalType":"bool"}],"stateMutability":"view"},{"type":"function","name":"symbol","inputs":[],"outputs":[{"name":"","type":"string","internalType":"string"}],"stateMutability":"view"},{"type":"function","name":"tokenURI","inputs":[{"name":"tokenId","type":"uint256","internalType":"uint256"}],"outputs":[{"name":"","type":"string","internalType":"string"}],"stateMutability":"view"},{"type":"function","name":"transferFrom","inputs":[{"name":"from","type":"address","internalType":"address"},{"name":"to","type":"address","internalType":"address"},{"name":"tokenId","type":"uint256","internalType":"uint256"}],"outputs":[],"stateMutability":"nonpayable"},{"type":"function","name":"transferOwnership","inputs":[{"name":"newOwner","type":"address","internalType":"address"}],"outputs":[],"stateMutability":"nonpayable"},{"type":"event","name":"Approval","inputs":[{"name":"owner","type":"address","indexed":true,"internalType":"address"},{"name":"approved","type":"address","indexed":true,"internalType":"address"},{"name":"tokenId","type":"uint256","indexed":true,"internalType":"uint256"}],"anonymous":false},{"type":"event","name":"ApprovalForAll","inputs":[{"name":"owner","type":"address","indexed":true,"internalType":"address"},{"name":"operator","type":"address","indexed":true,"internalType":"address"},{"name":"approved","type":"bool","indexed":false,"internalType":"bool"}],"anonymous":false},{"type":"event","name":"OwnershipTransferred","inputs":[{"name":"previousOwner","type":"address","indexed":true,"internalType":"address"},{"name":"newOwner","type":"address","indexed":true,"internalType":"address"}],"anonymous":false},{"type":"event","name":"SubmissionApproved","inputs":[{"name":"playerAddress","type":"address","indexed":true,"internalType":"address"},{"name":"challengeId","type":"uint256","indexed":true,"internalType":"uint256"},{"name":"submissionId","type":"string","indexed":false,"internalType":"string"},{"name":"points","type":"uint256[]","indexed":false,"internalType":"uint256[]"},{"name":"tokenId","type":"uint256","indexed":true,"internalType":"uint256"}],"anonymous":false},{"type":"event","name":"Transfer","inputs":[{"name":"from","type":"address","indexed":true,"internalType":"address"},{"name":"to","type":"address","indexed":true,"internalType":"address"},{"name":"tokenId","type":"uint256","indexed":true,"internalType":"uint256"}],"anonymous":false},{"type":"error","name":"AlreadyApprover","inputs":[{"name":"account","type":"address","internalType":"address"}]},{"type":"error","name":"ChallengeMismatch","inputs":[{"name":"expected","type":"uint256","internalType":"uint256"},{"name":"actual","type":"uint256","internalType":"uint256"}]},{"type":"error","name":"DeadlineExceeded","inputs":[{"name":"deadline","type":"uint256","internalType":"uint256"},{"name":"currentTime","type":"uint256","internalType":"uint256"}]},{"type":"error","name":"ERC721IncorrectOwner","inputs":[{"name":"sender","type":"address","internalType":"address"},{"name":"tokenId","type":"uint256","internalType":"uint256"},{"name":"owner","type":"address","internalType":"address"}]},{"type":"error","name":"ERC721InsufficientApproval","inputs":[{"name":"operator","type":"address","internalType":"address"},{"name":"tokenId","type":"uint256","internalType":"uint256"}]},{"type":"error","name":"ERC721InvalidApprover","inputs":[{"name":"approver","type":"address","internalType":"address"}]},{"type":"error","name":"ERC721InvalidOperator","inputs":[{"name":"operator","type":"address","internalType":"address"}]},{"type":"error","name":"ERC721InvalidOwner","inputs":[{"name":"owner","type":"address","internalType":"address"}]},{"type":"error","name":"ERC721InvalidReceiver","inputs":[{"name":"receiver","type":"address","internalType":"address"}]},{"type":"error","name":"ERC721InvalidSender","inputs":[{"name":"sender","type":"address","internalType":"address"}]},{"type":"error","name":"ERC721NonexistentToken","inputs":[{"name":"tokenId","type":"uint256","internalType":"uint256"}]},{"type":"error","name":"NotApprover","inputs":[{"name":"account","type":"address","internalType":"address"}]},{"type":"error","name":"OwnableInvalidOwner","inputs":[{"name":"owner","type":"address","internalType":"address"}]},{"type":"error","name":"OwnableUnauthorizedAccount","inputs":[{"name":"account","type":"address","internalType":"address"}]},{"type":"error","name":"Unauthorized","inputs":[]}],"bytecode":{"object":"0x60a060405234801561000f575f5ffd5b5060405161381438038061381483398181016040528101906100319190610272565b806040518060400160405280600c81526020017f4f6e636861696e204461797300000000000000000000000000000000000000008152506040518060400160405280600381526020017f4f43440000000000000000000000000000000000000000000000000000000000815250815f90816100ac91906104da565b5080600190816100bc91906104da565b5050505f73ffffffffffffffffffffffffffffffffffffffff168173ffffffffffffffffffffffffffffffffffffffff160361012f575f6040517f1e4fbdf700000000000000000000000000000000000000000000000000000000815260040161012691906105b8565b60405180910390fd5b61013e8161015160201b60201c565b506367ae878060808181525050506105d1565b5f60065f9054906101000a900473ffffffffffffffffffffffffffffffffffffffff1690508160065f6101000a81548173ffffffffffffffffffffffffffffffffffffffff021916908373ffffffffffffffffffffffffffffffffffffffff1602179055508173ffffffffffffffffffffffffffffffffffffffff168173ffffffffffffffffffffffffffffffffffffffff167f8be0079c531659141344cd1fd0a4f28419497f9722a3daafe3b4186f6b6457e060405160405180910390a35050565b5f5ffd5b5f73ffffffffffffffffffffffffffffffffffffffff82169050919050565b5f61024182610218565b9050919050565b61025181610237565b811461025b575f5ffd5b50565b5f8151905061026c81610248565b92915050565b5f6020828403121561028757610286610214565b5b5f6102948482850161025e565b91505092915050565b5f81519050919050565b7f4e487b71000000000000000000000000000000000000000000000000000000005f52604160045260245ffd5b7f4e487b71000000000000000000000000000000000000000000000000000000005f52602260045260245ffd5b5f600282049050600182168061031857607f821691505b60208210810361032b5761032a6102d4565b5b50919050565b5f819050815f5260205f209050919050565b5f6020601f8301049050919050565b5f82821b905092915050565b5f6008830261038d7fffffffffffffffffffffffffffffffffffffffffffffffffffffffffffffffff82610352565b6103978683610352565b95508019841693508086168417925050509392505050565b5f819050919050565b5f819050919050565b5f6103db6103d66103d1846103af565b6103b8565b6103af565b9050919050565b5f819050919050565b6103f4836103c1565b610408610400826103e2565b84845461035e565b825550505050565b5f5f905090565b61041f610410565b61042a8184846103eb565b505050565b5b8181101561044d576104425f82610417565b600181019050610430565b5050565b601f8211156104925761046381610331565b61046c84610343565b8101602085101561047b578190505b61048f61048785610343565b83018261042f565b50505b505050565b5f82821c905092915050565b5f6104b25f1984600802610497565b1980831691505092915050565b5f6104ca83836104a3565b9150826002028217905092915050565b6104e38261029d565b67ffffffffffffffff8111156104fc576104fb6102a7565b5b6105068254610301565b610511828285610451565b5f60209050601f831160018114610542575f8415610530578287015190505b61053a85826104bf565b8655506105a1565b601f19841661055086610331565b5f5b8281101561057757848901518255600182019150602085019450602081019050610552565b868310156105945784890151610590601f8916826104a3565b8355505b6001600288020188555050505b505050505050565b6105b281610237565b82525050565b5f6020820190506105cb5f8301846105a9565b92915050565b6080516132016106135f395f81816108ce015281816109720152818161099a01528181610c0801528181610c3001528181610ffc015261102401526132015ff3fe608060405234801561000f575f5ffd5b5060043610610171575f3560e01c80636d218e48116100dc578063adaccd7411610095578063bbe156271161006f578063bbe1562714610457578063c87b56dd14610487578063e985e9c5146104b7578063f2fde38b146104e757610171565b8063adaccd74146103ef578063b646c1941461041f578063b88d4fde1461043b57610171565b80636d218e481461032d57806370a082311461035d578063715018a61461038d5780638da5cb5b1461039757806395d89b41146103b5578063a22cb465146103d357610171565b806329dcb0cf1161012e57806329dcb0cf1461025b57806336b2b5b31461027957806340ec06e21461029557806342842e0e146102c55780636352211e146102e15780636cf4c88f1461031157610171565b806301ffc9a71461017557806306fdde03146101a5578063081812fc146101c3578063095ea7b3146101f35780631830deec1461020f57806323b872dd1461023f575b5f5ffd5b61018f600480360381019061018a919061223e565b610503565b60405161019c9190612283565b60405180910390f35b6101ad6105e4565b6040516101ba919061230c565b60405180910390f35b6101dd60048036038101906101d8919061235f565b610673565b6040516101ea91906123c9565b60405180910390f35b61020d6004803603810190610208919061240c565b61068e565b005b610229600480360381019061022491906124ab565b6106a4565b60405161023691906125d3565b60405180910390f35b610259600480360381019061025491906125f3565b6107cd565b005b6102636108cc565b6040516102709190612652565b60405180910390f35b610293600480360381019061028e91906126c0565b6108f0565b005b6102af60048036038101906102aa919061235f565b610baa565b6040516102bc9190612652565b60405180910390f35b6102df60048036038101906102da91906125f3565b610bce565b005b6102fb60048036038101906102f6919061235f565b610bed565b60405161030891906123c9565b60405180910390f35b61032b60048036038101906103269190612797565b610bfe565b005b61034760048036038101906103429190612797565b610d6f565b6040516103549190612283565b60405180910390f35b61037760048036038101906103729190612797565b610d8c565b6040516103849190612652565b60405180910390f35b610395610e42565b005b61039f610e55565b6040516103ac91906123c9565b60405180910390f35b6103bd610e7d565b6040516103ca919061230c565b60405180910390f35b6103ed60048036038101906103e891906127ec565b610f0d565b005b61040960048036038101906104049190612797565b610f23565b604051610416919061230c565b60405180910390f35b61043960048036038101906104349190612797565b610ff2565b005b61045560048036038101906104509190612952565b611165565b005b610471600480360381019061046c9190612797565b61118a565b60405161047e919061230c565b60405180910390f35b6104a1600480360381019061049c919061235f565b61122a565b6040516104ae919061230c565b60405180910390f35b6104d160048036038101906104cc91906129d2565b61128e565b6040516104de9190612283565b60405180910390f35b61050160048036038101906104fc9190612797565b61131c565b005b5f7f80ac58cd000000000000000000000000000000000000000000000000000000007bffffffffffffffffffffffffffffffffffffffffffffffffffffffff1916827bffffffffffffffffffffffffffffffffffffffffffffffffffffffff191614806105cd57507f5b5e139f000000000000000000000000000000000000000000000000000000007bffffffffffffffffffffffffffffffffffffffffffffffffffffffff1916827bffffffffffffffffffffffffffffffffffffffffffffffffffffffff1916145b806105dd57506105dc826113a0565b5b9050919050565b60605f80546105f290612a3d565b80601f016020809104026020016040519081016040528092919081815260200182805461061e90612a3d565b80156106695780601f1061064057610100808354040283529160200191610669565b820191905f5260205f20905b81548152906001019060200180831161064c57829003601f168201915b5050505050905090565b5f61067d82611409565b506106878261148f565b9050919050565b6106a0828261069b6114c8565b6114cf565b5050565b60605f600a5f8773ffffffffffffffffffffffffffffffffffffffff1673ffffffffffffffffffffffffffffffffffffffff1681526020019081526020015f2060010184846040516106f7929190612a9b565b90815260200160405180910390206040518060400160405290815f82015481526020016001820180548060200260200160405190810160405280929190818152602001828054801561076657602002820191905f5260205f20905b815481526020019060010190808311610752575b505050505081525050905084815f0151146107bd57805f0151856040517ff14989990000000000000000000000000000000000000000000000000000000081526004016107b4929190612ab3565b60405180910390fd5b8060200151915050949350505050565b5f73ffffffffffffffffffffffffffffffffffffffff168273ffffffffffffffffffffffffffffffffffffffff160361083d575f6040517f64a0ae9200000000000000000000000000000000000000000000000000000000815260040161083491906123c9565b60405180910390fd5b5f610850838361084b6114c8565b6114e1565b90508373ffffffffffffffffffffffffffffffffffffffff168173ffffffffffffffffffffffffffffffffffffffff16146108c6578382826040517f64283d7b0000000000000000000000000000000000000000000000000000000081526004016108bd93929190612ada565b60405180910390fd5b50505050565b7f000000000000000000000000000000000000000000000000000000000000000081565b60085f3373ffffffffffffffffffffffffffffffffffffffff1673ffffffffffffffffffffffffffffffffffffffff1681526020019081526020015f205f9054906101000a900460ff16610970576040517f82b4290000000000000000000000000000000000000000000000000000000000815260040160405180910390fd5b7f00000000000000000000000000000000000000000000000000000000000000004211156109f7577f0000000000000000000000000000000000000000000000000000000000000000426040517f24bf66c50000000000000000000000000000000000000000000000000000000081526004016109ee929190612ab3565b60405180910390fd5b5f600a5f8773ffffffffffffffffffffffffffffffffffffffff1673ffffffffffffffffffffffffffffffffffffffff1681526020019081526020015f2090505f85859050118015610a5757505f815f018054610a5390612a3d565b9050145b15610a70578484825f019182610a6e929190612cb9565b505b60405180604001604052808a81526020018484808060200260200160405190810160405280939291908181526020018383602002808284375f81840152601f19601f82011690508083019250505050505050815250816001018989604051610ad9929190612a9b565b90815260200160405180910390205f820151815f01556020820151816001019080519060200190610b0b929190612172565b509050505f60075f815480929190610b2290612db3565b9190505590508960095f8381526020019081526020015f2081905550610b4887826116ec565b808a8873ffffffffffffffffffffffffffffffffffffffff167f0259d29364eaa9bbd02ddca1e44ff92180665cf82ce082f54cf682f2af1b7bbd8c8c8989604051610b969493929190612e8e565b60405180910390a450505050505050505050565b5f610bb482611409565b5060095f8381526020019081526020015f20549050919050565b610be883838360405180602001604052805f815250611165565b505050565b5f610bf782611409565b9050919050565b610c06611709565b7f0000000000000000000000000000000000000000000000000000000000000000421115610c8d577f0000000000000000000000000000000000000000000000000000000000000000426040517f24bf66c5000000000000000000000000000000000000000000000000000000008152600401610c84929190612ab3565b60405180910390fd5b60085f8273ffffffffffffffffffffffffffffffffffffffff1673ffffffffffffffffffffffffffffffffffffffff1681526020019081526020015f205f9054906101000a900460ff16610d1857806040517fec37f146000000000000000000000000000000000000000000000000000000008152600401610d0f91906123c9565b60405180910390fd5b5f60085f8373ffffffffffffffffffffffffffffffffffffffff1673ffffffffffffffffffffffffffffffffffffffff1681526020019081526020015f205f6101000a81548160ff02191690831515021790555050565b6008602052805f5260405f205f915054906101000a900460ff1681565b5f5f73ffffffffffffffffffffffffffffffffffffffff168273ffffffffffffffffffffffffffffffffffffffff1603610dfd575f6040517f89c62b64000000000000000000000000000000000000000000000000000000008152600401610df491906123c9565b60405180910390fd5b60035f8373ffffffffffffffffffffffffffffffffffffffff1673ffffffffffffffffffffffffffffffffffffffff1681526020019081526020015f20549050919050565b610e4a611709565b610e535f611790565b565b5f60065f9054906101000a900473ffffffffffffffffffffffffffffffffffffffff16905090565b606060018054610e8c90612a3d565b80601f0160208091040260200160405190810160405280929190818152602001828054610eb890612a3d565b8015610f035780601f10610eda57610100808354040283529160200191610f03565b820191905f5260205f20905b815481529060010190602001808311610ee657829003601f168201915b5050505050905090565b610f1f610f186114c8565b8383611853565b5050565b6060600a5f8373ffffffffffffffffffffffffffffffffffffffff1673ffffffffffffffffffffffffffffffffffffffff1681526020019081526020015f205f018054610f6f90612a3d565b80601f0160208091040260200160405190810160405280929190818152602001828054610f9b90612a3d565b8015610fe65780601f10610fbd57610100808354040283529160200191610fe6565b820191905f5260205f20905b815481529060010190602001808311610fc957829003601f168201915b50505050509050919050565b610ffa611709565b7f0000000000000000000000000000000000000000000000000000000000000000421115611081577f0000000000000000000000000000000000000000000000000000000000000000426040517f24bf66c5000000000000000000000000000000000000000000000000000000008152600401611078929190612ab3565b60405180910390fd5b60085f8273ffffffffffffffffffffffffffffffffffffffff1673ffffffffffffffffffffffffffffffffffffffff1681526020019081526020015f205f9054906101000a900460ff161561110d57806040517f432c6a8500000000000000000000000000000000000000000000000000000000815260040161110491906123c9565b60405180910390fd5b600160085f8373ffffffffffffffffffffffffffffffffffffffff1673ffffffffffffffffffffffffffffffffffffffff1681526020019081526020015f205f6101000a81548160ff02191690831515021790555050565b6111708484846107cd565b61118461117b6114c8565b858585856119bc565b50505050565b600a602052805f5260405f205f91509050805f0180546111a990612a3d565b80601f01602080910402602001604051908101604052809291908181526020018280546111d590612a3d565b80156112205780601f106111f757610100808354040283529160200191611220565b820191905f5260205f20905b81548152906001019060200180831161120357829003601f168201915b5050505050905081565b606061123582611409565b505f60095f8481526020019081526020015f20549050611253611b68565b61125c82611b88565b61126585611b88565b60405160200161127793929190612f41565b604051602081830303815290604052915050919050565b5f60055f8473ffffffffffffffffffffffffffffffffffffffff1673ffffffffffffffffffffffffffffffffffffffff1681526020019081526020015f205f8373ffffffffffffffffffffffffffffffffffffffff1673ffffffffffffffffffffffffffffffffffffffff1681526020019081526020015f205f9054906101000a900460ff16905092915050565b611324611709565b5f73ffffffffffffffffffffffffffffffffffffffff168173ffffffffffffffffffffffffffffffffffffffff1603611394575f6040517f1e4fbdf700000000000000000000000000000000000000000000000000000000815260040161138b91906123c9565b60405180910390fd5b61139d81611790565b50565b5f7f01ffc9a7000000000000000000000000000000000000000000000000000000007bffffffffffffffffffffffffffffffffffffffffffffffffffffffff1916827bffffffffffffffffffffffffffffffffffffffffffffffffffffffff1916149050919050565b5f5f61141483611ce1565b90505f73ffffffffffffffffffffffffffffffffffffffff168173ffffffffffffffffffffffffffffffffffffffff160361148657826040517f7e27328900000000000000000000000000000000000000000000000000000000815260040161147d9190612652565b60405180910390fd5b80915050919050565b5f60045f8381526020019081526020015f205f9054906101000a900473ffffffffffffffffffffffffffffffffffffffff169050919050565b5f33905090565b6114dc8383836001611d1a565b505050565b5f5f6114ec84611ce1565b90505f73ffffffffffffffffffffffffffffffffffffffff168373ffffffffffffffffffffffffffffffffffffffff161461152d5761152c818486611ed9565b5b5f73ffffffffffffffffffffffffffffffffffffffff168173ffffffffffffffffffffffffffffffffffffffff16146115b85761156c5f855f5f611d1a565b600160035f8373ffffffffffffffffffffffffffffffffffffffff1673ffffffffffffffffffffffffffffffffffffffff1681526020019081526020015f205f82825403925050819055505b5f73ffffffffffffffffffffffffffffffffffffffff168573ffffffffffffffffffffffffffffffffffffffff161461163757600160035f8773ffffffffffffffffffffffffffffffffffffffff1673ffffffffffffffffffffffffffffffffffffffff1681526020019081526020015f205f82825401925050819055505b8460025f8681526020019081526020015f205f6101000a81548173ffffffffffffffffffffffffffffffffffffffff021916908373ffffffffffffffffffffffffffffffffffffffff160217905550838573ffffffffffffffffffffffffffffffffffffffff168273ffffffffffffffffffffffffffffffffffffffff167fddf252ad1be2c89b69c2b068fc378daa952ba7f163c4a11628f55a4df523b3ef60405160405180910390a4809150509392505050565b611705828260405180602001604052805f815250611f9c565b5050565b6117116114c8565b73ffffffffffffffffffffffffffffffffffffffff1661172f610e55565b73ffffffffffffffffffffffffffffffffffffffff161461178e576117526114c8565b6040517f118cdaa700000000000000000000000000000000000000000000000000000000815260040161178591906123c9565b60405180910390fd5b565b5f60065f9054906101000a900473ffffffffffffffffffffffffffffffffffffffff1690508160065f6101000a81548173ffffffffffffffffffffffffffffffffffffffff021916908373ffffffffffffffffffffffffffffffffffffffff1602179055508173ffffffffffffffffffffffffffffffffffffffff168173ffffffffffffffffffffffffffffffffffffffff167f8be0079c531659141344cd1fd0a4f28419497f9722a3daafe3b4186f6b6457e060405160405180910390a35050565b5f73ffffffffffffffffffffffffffffffffffffffff168273ffffffffffffffffffffffffffffffffffffffff16036118c357816040517f5b08ba180000000000000000000000000000000000000000000000000000000081526004016118ba91906123c9565b60405180910390fd5b8060055f8573ffffffffffffffffffffffffffffffffffffffff1673ffffffffffffffffffffffffffffffffffffffff1681526020019081526020015f205f8473ffffffffffffffffffffffffffffffffffffffff1673ffffffffffffffffffffffffffffffffffffffff1681526020019081526020015f205f6101000a81548160ff0219169083151502179055508173ffffffffffffffffffffffffffffffffffffffff168373ffffffffffffffffffffffffffffffffffffffff167f17307eab39ab6107e8899845ad3d59bd9653f200f220920489ca2b5937696c31836040516119af9190612283565b60405180910390a3505050565b5f8373ffffffffffffffffffffffffffffffffffffffff163b1115611b61578273ffffffffffffffffffffffffffffffffffffffff1663150b7a02868685856040518563ffffffff1660e01b8152600401611a1a9493929190612fd9565b6020604051808303815f875af1925050508015611a5557506040513d601f19601f82011682018060405250810190611a529190613037565b60015b611ad6573d805f8114611a83576040519150601f19603f3d011682016040523d82523d5f602084013e611a88565b606091505b505f815103611ace57836040517f64a0ae92000000000000000000000000000000000000000000000000000000008152600401611ac591906123c9565b60405180910390fd5b805181602001fd5b63150b7a0260e01b7bffffffffffffffffffffffffffffffffffffffffffffffffffffffff1916817bffffffffffffffffffffffffffffffffffffffffffffffffffffffff191614611b5f57836040517f64a0ae92000000000000000000000000000000000000000000000000000000008152600401611b5691906123c9565b60405180910390fd5b505b5050505050565b60606040518060600160405280602281526020016131aa60229139905090565b60605f8203611bce576040518060400160405280600181526020017f30000000000000000000000000000000000000000000000000000000000000008152509050611cdc565b5f8290505f5b5f8214611bfd578080611be690612db3565b915050600a82611bf6919061308f565b9150611bd4565b5f8167ffffffffffffffff811115611c1857611c1761282e565b5b6040519080825280601f01601f191660200182016040528015611c4a5781602001600182028036833780820191505090505b5090505b5f8514611cd557600182611c6291906130bf565b9150600a85611c7191906130f2565b6030611c7d9190613122565b60f81b818381518110611c9357611c92613155565b5b60200101907effffffffffffffffffffffffffffffffffffffffffffffffffffffffffffff191690815f1a905350600a85611cce919061308f565b9450611c4e565b8093505050505b919050565b5f60025f8381526020019081526020015f205f9054906101000a900473ffffffffffffffffffffffffffffffffffffffff169050919050565b8080611d5257505f73ffffffffffffffffffffffffffffffffffffffff168273ffffffffffffffffffffffffffffffffffffffff1614155b15611e84575f611d6184611409565b90505f73ffffffffffffffffffffffffffffffffffffffff168373ffffffffffffffffffffffffffffffffffffffff1614158015611dcb57508273ffffffffffffffffffffffffffffffffffffffff168173ffffffffffffffffffffffffffffffffffffffff1614155b8015611dde5750611ddc818461128e565b155b15611e2057826040517fa9fbf51f000000000000000000000000000000000000000000000000000000008152600401611e1791906123c9565b60405180910390fd5b8115611e8257838573ffffffffffffffffffffffffffffffffffffffff168273ffffffffffffffffffffffffffffffffffffffff167f8c5be1e5ebec7d5bd14f71427d1e84f3dd0314c0f7b2291e5b200ac8c7c3b92560405160405180910390a45b505b8360045f8581526020019081526020015f205f6101000a81548173ffffffffffffffffffffffffffffffffffffffff021916908373ffffffffffffffffffffffffffffffffffffffff16021790555050505050565b611ee4838383611fbf565b611f97575f73ffffffffffffffffffffffffffffffffffffffff168373ffffffffffffffffffffffffffffffffffffffff1603611f5857806040517f7e273289000000000000000000000000000000000000000000000000000000008152600401611f4f9190612652565b60405180910390fd5b81816040517f177e802f000000000000000000000000000000000000000000000000000000008152600401611f8e929190613182565b60405180910390fd5b505050565b611fa6838361207f565b611fba611fb16114c8565b5f8585856119bc565b505050565b5f5f73ffffffffffffffffffffffffffffffffffffffff168373ffffffffffffffffffffffffffffffffffffffff161415801561207657508273ffffffffffffffffffffffffffffffffffffffff168473ffffffffffffffffffffffffffffffffffffffff1614806120375750612036848461128e565b5b8061207557508273ffffffffffffffffffffffffffffffffffffffff1661205d8361148f565b73ffffffffffffffffffffffffffffffffffffffff16145b5b90509392505050565b5f73ffffffffffffffffffffffffffffffffffffffff168273ffffffffffffffffffffffffffffffffffffffff16036120ef575f6040517f64a0ae920000000000000000000000000000000000000000000000000000000081526004016120e691906123c9565b60405180910390fd5b5f6120fb83835f6114e1565b90505f73ffffffffffffffffffffffffffffffffffffffff168173ffffffffffffffffffffffffffffffffffffffff161461216d575f6040517f73c6ac6e00000000000000000000000000000000000000000000000000000000815260040161216491906123c9565b60405180910390fd5b505050565b828054828255905f5260205f209081019282156121ac579160200282015b828111156121ab578251825591602001919060010190612190565b5b5090506121b991906121bd565b5090565b5b808211156121d4575f815f9055506001016121be565b5090565b5f604051905090565b5f5ffd5b5f5ffd5b5f7fffffffff0000000000000000000000000000000000000000000000000000000082169050919050565b61221d816121e9565b8114612227575f5ffd5b50565b5f8135905061223881612214565b92915050565b5f60208284031215612253576122526121e1565b5b5f6122608482850161222a565b91505092915050565b5f8115159050919050565b61227d81612269565b82525050565b5f6020820190506122965f830184612274565b92915050565b5f81519050919050565b5f82825260208201905092915050565b8281835e5f83830152505050565b5f601f19601f8301169050919050565b5f6122de8261229c565b6122e881856122a6565b93506122f88185602086016122b6565b612301816122c4565b840191505092915050565b5f6020820190508181035f83015261232481846122d4565b905092915050565b5f819050919050565b61233e8161232c565b8114612348575f5ffd5b50565b5f8135905061235981612335565b92915050565b5f60208284031215612374576123736121e1565b5b5f6123818482850161234b565b91505092915050565b5f73ffffffffffffffffffffffffffffffffffffffff82169050919050565b5f6123b38261238a565b9050919050565b6123c3816123a9565b82525050565b5f6020820190506123dc5f8301846123ba565b92915050565b6123eb816123a9565b81146123f5575f5ffd5b50565b5f81359050612406816123e2565b92915050565b5f5f60408385031215612422576124216121e1565b5b5f61242f858286016123f8565b92505060206124408582860161234b565b9150509250929050565b5f5ffd5b5f5ffd5b5f5ffd5b5f5f83601f84011261246b5761246a61244a565b5b8235905067ffffffffffffffff8111156124885761248761244e565b5b6020830191508360018202830111156124a4576124a3612452565b5b9250929050565b5f5f5f5f606085870312156124c3576124c26121e1565b5b5f6124d0878288016123f8565b94505060206124e18782880161234b565b935050604085013567ffffffffffffffff811115612502576125016121e5565b5b61250e87828801612456565b925092505092959194509250565b5f81519050919050565b5f82825260208201905092915050565b5f819050602082019050919050565b61254e8161232c565b82525050565b5f61255f8383612545565b60208301905092915050565b5f602082019050919050565b5f6125818261251c565b61258b8185612526565b935061259683612536565b805f5b838110156125c65781516125ad8882612554565b97506125b88361256b565b925050600181019050612599565b5085935050505092915050565b5f6020820190508181035f8301526125eb8184612577565b905092915050565b5f5f5f6060848603121561260a576126096121e1565b5b5f612617868287016123f8565b9350506020612628868287016123f8565b92505060406126398682870161234b565b9150509250925092565b61264c8161232c565b82525050565b5f6020820190506126655f830184612643565b92915050565b5f5f83601f8401126126805761267f61244a565b5b8235905067ffffffffffffffff81111561269d5761269c61244e565b5b6020830191508360208202830111156126b9576126b8612452565b5b9250929050565b5f5f5f5f5f5f5f5f60a0898b0312156126dc576126db6121e1565b5b5f6126e98b828c0161234b565b985050602089013567ffffffffffffffff81111561270a576127096121e5565b5b6127168b828c01612456565b975097505060406127298b828c016123f8565b955050606089013567ffffffffffffffff81111561274a576127496121e5565b5b6127568b828c01612456565b9450945050608089013567ffffffffffffffff811115612779576127786121e5565b5b6127858b828c0161266b565b92509250509295985092959890939650565b5f602082840312156127ac576127ab6121e1565b5b5f6127b9848285016123f8565b91505092915050565b6127cb81612269565b81146127d5575f5ffd5b50565b5f813590506127e6816127c2565b92915050565b5f5f60408385031215612802576128016121e1565b5b5f61280f858286016123f8565b9250506020612820858286016127d8565b9150509250929050565b5f5ffd5b7f4e487b71000000000000000000000000000000000000000000000000000000005f52604160045260245ffd5b612864826122c4565b810181811067ffffffffffffffff821117156128835761288261282e565b5b80604052505050565b5f6128956121d8565b90506128a1828261285b565b919050565b5f67ffffffffffffffff8211156128c0576128bf61282e565b5b6128c9826122c4565b9050602081019050919050565b828183375f83830152505050565b5f6128f66128f1846128a6565b61288c565b9050828152602081018484840111156129125761291161282a565b5b61291d8482856128d6565b509392505050565b5f82601f8301126129395761293861244a565b5b81356129498482602086016128e4565b91505092915050565b5f5f5f5f6080858703121561296a576129696121e1565b5b5f612977878288016123f8565b9450506020612988878288016123f8565b93505060406129998782880161234b565b925050606085013567ffffffffffffffff8111156129ba576129b96121e5565b5b6129c687828801612925565b91505092959194509250565b5f5f604083850312156129e8576129e76121e1565b5b5f6129f5858286016123f8565b9250506020612a06858286016123f8565b9150509250929050565b7f4e487b71000000000000000000000000000000000000000000000000000000005f52602260045260245ffd5b5f6002820490506001821680612a5457607f821691505b602082108103612a6757612a66612a10565b5b50919050565b5f81905092915050565b5f612a828385612a6d565b9350612a8f8385846128d6565b82840190509392505050565b5f612aa7828486612a77565b91508190509392505050565b5f604082019050612ac65f830185612643565b612ad36020830184612643565b9392505050565b5f606082019050612aed5f8301866123ba565b612afa6020830185612643565b612b0760408301846123ba565b949350505050565b5f82905092915050565b5f819050815f5260205f209050919050565b5f6020601f8301049050919050565b5f82821b905092915050565b5f60088302612b757fffffffffffffffffffffffffffffffffffffffffffffffffffffffffffffffff82612b3a565b612b7f8683612b3a565b95508019841693508086168417925050509392505050565b5f819050919050565b5f612bba612bb5612bb08461232c565b612b97565b61232c565b9050919050565b5f819050919050565b612bd383612ba0565b612be7612bdf82612bc1565b848454612b46565b825550505050565b5f5f905090565b612bfe612bef565b612c09818484612bca565b505050565b5b81811015612c2c57612c215f82612bf6565b600181019050612c0f565b5050565b601f821115612c7157612c4281612b19565b612c4b84612b2b565b81016020851015612c5a578190505b612c6e612c6685612b2b565b830182612c0e565b50505b505050565b5f82821c905092915050565b5f612c915f1984600802612c76565b1980831691505092915050565b5f612ca98383612c82565b9150826002028217905092915050565b612cc38383612b0f565b67ffffffffffffffff811115612cdc57612cdb61282e565b5b612ce68254612a3d565b612cf1828285612c30565b5f601f831160018114612d1e575f8415612d0c578287013590505b612d168582612c9e565b865550612d7d565b601f198416612d2c86612b19565b5f5b82811015612d5357848901358255600182019150602085019450602081019050612d2e565b86831015612d705784890135612d6c601f891682612c82565b8355505b6001600288020188555050505b50505050505050565b7f4e487b71000000000000000000000000000000000000000000000000000000005f52601160045260245ffd5b5f612dbd8261232c565b91507fffffffffffffffffffffffffffffffffffffffffffffffffffffffffffffffff8203612def57612dee612d86565b5b600182019050919050565b5f612e0583856122a6565b9350612e128385846128d6565b612e1b836122c4565b840190509392505050565b5f5ffd5b82818337505050565b5f612e3e8385612526565b93507f07ffffffffffffffffffffffffffffffffffffffffffffffffffffffffffffff831115612e7157612e70612e26565b5b602083029250612e82838584612e2a565b82840190509392505050565b5f6040820190508181035f830152612ea7818688612dfa565b90508181036020830152612ebc818486612e33565b905095945050505050565b5f612ed18261229c565b612edb8185612a6d565b9350612eeb8185602086016122b6565b80840191505092915050565b7f2f000000000000000000000000000000000000000000000000000000000000005f82015250565b5f612f2b600183612a6d565b9150612f3682612ef7565b600182019050919050565b5f612f4c8286612ec7565b9150612f5782612f1f565b9150612f638285612ec7565b9150612f6e82612f1f565b9150612f7a8284612ec7565b9150819050949350505050565b5f81519050919050565b5f82825260208201905092915050565b5f612fab82612f87565b612fb58185612f91565b9350612fc58185602086016122b6565b612fce816122c4565b840191505092915050565b5f608082019050612fec5f8301876123ba565b612ff960208301866123ba565b6130066040830185612643565b81810360608301526130188184612fa1565b905095945050505050565b5f8151905061303181612214565b92915050565b5f6020828403121561304c5761304b6121e1565b5b5f61305984828501613023565b91505092915050565b7f4e487b71000000000000000000000000000000000000000000000000000000005f52601260045260245ffd5b5f6130998261232c565b91506130a48361232c565b9250826130b4576130b3613062565b5b828204905092915050565b5f6130c98261232c565b91506130d48361232c565b92508282039050818111156130ec576130eb612d86565b5b92915050565b5f6130fc8261232c565b91506131078361232c565b92508261311757613116613062565b5b828206905092915050565b5f61312c8261232c565b91506131378361232c565b925082820190508082111561314f5761314e612d86565b5b92915050565b7f4e487b71000000000000000000000000000000000000000000000000000000005f52603260045260245ffd5b5f6040820190506131955f8301856123ba565b6131a26020830184612643565b939250505056fe68747470733a2f2f67656e657369782e72617868766c2e636f6d2f6170692f6e6674a2646970667358221220937a979369a254ac1a50e76658442e9ac14e8e59bb294efb2ea948af08c0b2ad64736f6c634300081c0033","linkReferences":{}},"methodIdentifiers":{"addApprover(address)":"b646c194","approve(address,uint256)":"095ea7b3","approveSubmission(uint256,string,address,string,uint256[])":"36b2b5b3","balanceOf(address)":"70a08231","deadline()":"29dcb0cf","getApproved(uint256)":"081812fc","getChallengeId(uint256)":"40ec06e2","getNickname(address)":"adaccd74","getPoints(address,uint256,string)":"1830deec","isApprovedForAll(address,address)":"e985e9c5","isApprover(address)":"6d218e48","name()":"06fdde03","owner()":"8da5cb5b","ownerOf(uint256)":"6352211e","profiles(address)":"bbe15627","removeApprover(address)":"6cf4c88f","renounceOwnership()":"715018a6","safeTransferFrom(address,address,uint256)":"42842e0e","safeTransferFrom(address,address,uint256,bytes)":"b88d4fde","setApprovalForAll(address,bool)":"a22cb465","supportsInterface(bytes4)":"01ffc9a7","symbol()":"95d89b41","tokenURI(uint256)":"c87b56dd","transferFrom(address,address,uint256)":"23b872dd","transferOwnership(address)":"f2fde38b"},"id":33}